{"contracts/Quoter.sol":{"Quoter":{"abi":[{"inputs":[{"internalType":"address[]","name":"routers","type":"address[]"},{"internalType":"address","name":"tokenIn","type":"address"},{"internalType":"address","name":"tokenOut","type":"address"},{"internalType":"uint256","name":"amountIn","type":"uint256"}],"name":"quote","outputs":[{"internalType":"uint256","name":"bestAmountOut","type":"uint256"},{"internalType":"address","name":"bestRouter","type":"address"}],"stateMutability":"view","type":"function"}],"evm":{"bytecode":{"linkReferences":{},"object":"60808060405234610016576103da908161001c8239f35b600080fdfe6080604052600436101561001257600080fd5b60003560e01c634f169a6c1461002757600080fd5b346103135760803660031901126103135767ffffffffffffffff60043511610313573660236004350112156103135767ffffffffffffffff6004356004013511610313573660246004356004013560051b600435010111610313576024356001600160a01b038116810361031357604435906001600160a01b03821682036103135760009060009060005b6004356004013581106100d757604080518581526001600160a01b0385166020820152f35b600435600582901b01602401356001600160a01b038116900361031357600435600582901b01602401356001600160a01b0316156103695760405180606081011067ffffffffffffffff6060830111176103185760608101604052600281526040366020830137805115610353576001600160a01b03831660208201528051600110156103535760018060a01b0386166040820152604051809163d06ca61f60e01b82526044820160643560048401526040602484015281518091526020606484019201906000905b80821061032e575050509080600092038160018060a01b0360248760051b600435010135165afa6000918161026d575b506101fe57505b60001981146101e8576001016100b2565b634e487b7160e01b600052601160045260246000fd5b805160028110159081610249575b50610218575b506101d7565b9193509150805160001981019081116101e85761023491610390565b519160248260051b6004350101359138610212565b8091506000198101116101e85761026586916000190183610390565b51113861020c565b9091503d806000833e610280818361036e565b602082828101031261031357815167ffffffffffffffff811161031357818301601f82850101121561031357808301519267ffffffffffffffff8411610318578360051b91604051946102d6602085018761036e565b8552602080860193828401010193820184116103135701602001905b8282106103035750505090386101d0565b81518152602091820191016102f2565b600080fd5b634e487b7160e01b600052604160045260246000fd5b82516001600160a01b03168452859450602093840193909201916001909101906101a0565b634e487b7160e01b600052603260045260246000fd5b6101d7565b90601f8019910116810190811067ffffffffffffffff82111761031857604052565b80518210156103535760209160051b01019056fea264697066735822122051bf720dde3148cd48a8fac4d420e83a3450dc81d06ff2f3ed60180033281a5564736f6c63430008140033","opcodes":"PUSH1 0x80 DUP1 PUSH1 0x40 MSTORE CALLVALUE PUSH2 0x16 JUMPI PUSH2 0x3DA SWAP1 DUP2 PUSH2 0x1C DUP3 CODECOPY RETURN JUMPDEST PUSH1 0x0 DUP1 REVERT INVALID PUSH1 0x80 PUSH1 0x40 MSTORE PUSH1 0x4 CALLDATASIZE LT ISZERO PUSH2 0x12 JUMPI PUSH1 0x0 DUP1 REVERT JUMPDEST PUSH1 0x0 CALLDATALOAD PUSH1 0xE0 SHR PUSH4 0x4F169A6C EQ PUSH2 0x27 JUMPI PUSH1 0x0 DUP1 REVERT JUMPDEST CALLVALUE PUSH2 0x313 JUMPI PUSH1 0x80 CALLDATASIZE PUSH1 0x3 NOT ADD SLT PUSH2 0x313 JUMPI PUSH8 0xFFFFFFFFFFFFFFFF PUSH1 0x4 CALLDATALOAD GT PUSH2 0x313 JUMPI CALLDATASIZE PUSH1 0x23 PUSH1 0x4 CALLDATALOAD ADD SLT ISZERO PUSH2 0x313 JUMPI PUSH8 0xFFFFFFFFFFFFFFFF PUSH1 0x4 CALLDATALOAD PUSH1 0x4 ADD CALLDATALOAD GT PUSH2 0x313 JUMPI CALLDATASIZE PUSH1 0x24 PUSH1 0x4 CALLDATALOAD PUSH1 0x4 ADD CALLDATALOAD PUSH1 0x5 SHL PUSH1 0x4 CALLDATALOAD ADD ADD GT PUSH2 0x313 JUMPI PUSH1 0x24 CALLDATALOAD PUSH1 0x1 PUSH1 0x1 PUSH1 0xA0 SHL SUB DUP2 AND DUP2 SUB PUSH2 0x313 JUMPI PUSH1 0x44 CALLDATALOAD SWAP1 PUSH1 0x1 PUSH1 0x1 PUSH1 0xA0 SHL SUB DUP3 AND DUP3 SUB PUSH2 0x313 JUMPI PUSH1 0x0 SWAP1 PUSH1 0x0 SWAP1 PUSH1 0x0 JUMPDEST PUSH1 0x4 CALLDATALOAD PUSH1 0x4 ADD CALLDATALOAD DUP2 LT PUSH2 0xD7 JUMPI PUSH1 0x40 DUP1 MLOAD DUP6 DUP2 MSTORE PUSH1 0x1 PUSH1 0x1 PUSH1 0xA0 SHL SUB DUP6 AND PUSH1 0x20 DUP3 ADD MSTORE RETURN JUMPDEST PUSH1 0x4 CALLDATALOAD PUSH1 0x5 DUP3 SWAP1 SHL ADD PUSH1 0x24 ADD CALLDATALOAD PUSH1 0x1 PUSH1 0x1 PUSH1 0xA0 SHL SUB DUP2 AND SWAP1 SUB PUSH2 0x313 JUMPI PUSH1 0x4 CALLDATALOAD PUSH1 0x5 DUP3 SWAP1 SHL ADD PUSH1 0x24 ADD CALLDATALOAD PUSH1 0x1 PUSH1 0x1 PUSH1 0xA0 SHL SUB AND ISZERO PUSH2 0x369 JUMPI PUSH1 0x40 MLOAD DUP1 PUSH1 0x60 DUP2 ADD LT PUSH8 0xFFFFFFFFFFFFFFFF PUSH1 0x60 DUP4 ADD GT OR PUSH2 0x318 JUMPI PUSH1 0x60 DUP2 ADD PUSH1 0x40 MSTORE PUSH1 0x2 DUP2 MSTORE PUSH1 0x40 CALLDATASIZE PUSH1 0x20 DUP4 ADD CALLDATACOPY DUP1 MLOAD ISZERO PUSH2 0x353 JUMPI PUSH1 0x1 PUSH1 0x1 PUSH1 0xA0 SHL SUB DUP4 AND PUSH1 0x20 DUP3 ADD MSTORE DUP1 MLOAD PUSH1 0x1 LT ISZERO PUSH2 0x353 JUMPI PUSH1 0x1 DUP1 PUSH1 0xA0 SHL SUB DUP7 AND PUSH1 0x40 DUP3 ADD MSTORE PUSH1 0x40 MLOAD DUP1 SWAP2 PUSH4 0xD06CA61F PUSH1 0xE0 SHL DUP3 MSTORE PUSH1 0x44 DUP3 ADD PUSH1 0x64 CALLDATALOAD PUSH1 0x4 DUP5 ADD MSTORE PUSH1 0x40 PUSH1 0x24 DUP5 ADD MSTORE DUP2 MLOAD DUP1 SWAP2 MSTORE PUSH1 0x20 PUSH1 0x64 DUP5 ADD SWAP3 ADD SWAP1 PUSH1 0x0 SWAP1 JUMPDEST DUP1 DUP3 LT PUSH2 0x32E JUMPI POP POP POP SWAP1 DUP1 PUSH1 0x0 SWAP3 SUB DUP2 PUSH1 0x1 DUP1 PUSH1 0xA0 SHL SUB PUSH1 0x24 DUP8 PUSH1 0x5 SHL PUSH1 0x4 CALLDATALOAD ADD ADD CALLDATALOAD AND GAS STATICCALL PUSH1 0x0 SWAP2 DUP2 PUSH2 0x26D JUMPI JUMPDEST POP PUSH2 0x1FE JUMPI POP JUMPDEST PUSH1 0x0 NOT DUP2 EQ PUSH2 0x1E8 JUMPI PUSH1 0x1 ADD PUSH2 0xB2 JUMP JUMPDEST PUSH4 0x4E487B71 PUSH1 0xE0 SHL PUSH1 0x0 MSTORE PUSH1 0x11 PUSH1 0x4 MSTORE PUSH1 0x24 PUSH1 0x0 REVERT JUMPDEST DUP1 MLOAD PUSH1 0x2 DUP2 LT ISZERO SWAP1 DUP2 PUSH2 0x249 JUMPI JUMPDEST POP PUSH2 0x218 JUMPI JUMPDEST POP PUSH2 0x1D7 JUMP JUMPDEST SWAP2 SWAP4 POP SWAP2 POP DUP1 MLOAD PUSH1 0x0 NOT DUP2 ADD SWAP1 DUP2 GT PUSH2 0x1E8 JUMPI PUSH2 0x234 SWAP2 PUSH2 0x390 JUMP JUMPDEST MLOAD SWAP2 PUSH1 0x24 DUP3 PUSH1 0x5 SHL PUSH1 0x4 CALLDATALOAD ADD ADD CALLDATALOAD SWAP2 CODESIZE PUSH2 0x212 JUMP JUMPDEST DUP1 SWAP2 POP PUSH1 0x0 NOT DUP2 ADD GT PUSH2 0x1E8 JUMPI PUSH2 0x265 DUP7 SWAP2 PUSH1 0x0 NOT ADD DUP4 PUSH2 0x390 JUMP JUMPDEST MLOAD GT CODESIZE PUSH2 0x20C JUMP JUMPDEST SWAP1 SWAP2 POP RETURNDATASIZE DUP1 PUSH1 0x0 DUP4 RETURNDATACOPY PUSH2 0x280 DUP2 DUP4 PUSH2 0x36E JUMP JUMPDEST PUSH1 0x20 DUP3 DUP3 DUP2 ADD SUB SLT PUSH2 0x313 JUMPI DUP2 MLOAD PUSH8 0xFFFFFFFFFFFFFFFF DUP2 GT PUSH2 0x313 JUMPI DUP2 DUP4 ADD PUSH1 0x1F DUP3 DUP6 ADD ADD SLT ISZERO PUSH2 0x313 JUMPI DUP1 DUP4 ADD MLOAD SWAP3 PUSH8 0xFFFFFFFFFFFFFFFF DUP5 GT PUSH2 0x318 JUMPI DUP4 PUSH1 0x5 SHL SWAP2 PUSH1 0x40 MLOAD SWAP5 PUSH2 0x2D6 PUSH1 0x20 DUP6 ADD DUP8 PUSH2 0x36E JUMP JUMPDEST DUP6 MSTORE PUSH1 0x20 DUP1 DUP7 ADD SWAP4 DUP3 DUP5 ADD ADD ADD SWAP4 DUP3 ADD DUP5 GT PUSH2 0x313 JUMPI ADD PUSH1 0x20 ADD SWAP1 JUMPDEST DUP3 DUP3 LT PUSH2 0x303 JUMPI POP POP POP SWAP1 CODESIZE PUSH2 0x1D0 JUMP JUMPDEST DUP2 MLOAD DUP2 MSTORE PUSH1 0x20 SWAP2 DUP3 ADD SWAP2 ADD PUSH2 0x2F2 JUMP JUMPDEST PUSH1 0x0 DUP1 REVERT JUMPDEST PUSH4 0x4E487B71 PUSH1 0xE0 SHL PUSH1 0x0 MSTORE PUSH1 0x41 PUSH1 0x4 MSTORE PUSH1 0x24 PUSH1 0x0 REVERT JUMPDEST DUP3 MLOAD PUSH1 0x1 PUSH1 0x1 PUSH1 0xA0 SHL SUB AND DUP5 MSTORE DUP6 SWAP5 POP PUSH1 0x20 SWAP4 DUP5 ADD SWAP4 SWAP1 SWAP3 ADD SWAP2 PUSH1 0x1 SWAP1 SWAP2 ADD SWAP1 PUSH2 0x1A0 JUMP JUMPDEST PUSH4 0x4E487B71 PUSH1 0xE0 SHL PUSH1 0x0 MSTORE PUSH1 0x32 PUSH1 0x4 MSTORE PUSH1 0x24 PUSH1 0x0 REVERT JUMPDEST PUSH2 0x1D7 JUMP JUMPDEST SWAP1 PUSH1 0x1F DUP1 NOT SWAP2 ADD AND DUP2 ADD SWAP1 DUP2 LT PUSH8 0xFFFFFFFFFFFFFFFF DUP3 GT OR PUSH2 0x318 JUMPI PUSH1 0x40 MSTORE JUMP JUMPDEST DUP1 MLOAD DUP3 LT ISZERO PUSH2 0x353 JUMPI PUSH1 0x20 SWAP2 PUSH1 0x5 SHL ADD ADD SWAP1 JUMP INVALID LOG2 PUSH5 0x6970667358 0x22 SLT KECCAK256 MLOAD 0xBF PUSH19 0xDDE3148CD48A8FAC4D420E83A3450DC81D06F CALLCODE RETURN 0xED PUSH1 0x18 STOP CALLER 0x28 BYTE SSTORE PUSH5 0x736F6C6343 STOP ADDMOD EQ STOP CALLER "},"methodIdentifiers":{"quote(address[],address,address,uint256)":"4f169a6c"}}}}}