{"contracts/Relayer.sol":{"Relayer":{"abi":[{"inputs":[{"internalType":"address","name":"_router","type":"address"},{"internalType":"address","name":"_proofVerifier","type":"address"},{"internalType":"string","name":"_name","type":"string"},{"internalType":"string","name":"_version","type":"string"}],"stateMutability":"nonpayable","type":"constructor"},{"inputs":[],"name":"InvalidShortString","type":"error"},{"inputs":[{"internalType":"string","name":"str","type":"string"}],"name":"StringTooLong","type":"error"},{"anonymous":false,"inputs":[],"name":"EIP712DomainChanged","type":"event"},{"anonymous":false,"inputs":[{"indexed":true,"internalType":"address","name":"user","type":"address"},{"indexed":true,"internalType":"address","name":"tokenIn","type":"address"},{"indexed":true,"internalType":"address","name":"tokenOut","type":"address"},{"indexed":false,"internalType":"uint256","name":"amountIn","type":"uint256"},{"indexed":false,"internalType":"uint256","name":"amountOutMin","type":"uint256"},{"indexed":false,"internalType":"uint256","name":"outputAmount","type":"uint256"}],"name":"OrderExecuted","type":"event"},{"anonymous":false,"inputs":[{"indexed":true,"internalType":"address","name":"previousOwner","type":"address"},{"indexed":true,"internalType":"address","name":"newOwner","type":"address"}],"name":"OwnershipTransferred","type":"event"},{"inputs":[],"name":"SWAP_TYPEHASH","outputs":[{"internalType":"bytes32","name":"","type":"bytes32"}],"stateMutability":"view","type":"function"},{"inputs":[],"name":"eip712Domain","outputs":[{"internalType":"bytes1","name":"fields","type":"bytes1"},{"internalType":"string","name":"name","type":"string"},{"internalType":"string","name":"version","type":"string"},{"internalType":"uint256","name":"chainId","type":"uint256"},{"internalType":"address","name":"verifyingContract","type":"address"},{"internalType":"bytes32","name":"salt","type":"bytes32"},{"internalType":"uint256[]","name":"extensions","type":"uint256[]"}],"stateMutability":"view","type":"function"},{"inputs":[{"components":[{"internalType":"address","name":"user","type":"address"},{"internalType":"address","name":"tokenIn","type":"address"},{"internalType":"address","name":"tokenOut","type":"address"},{"internalType":"uint256","name":"amountIn","type":"uint256"},{"internalType":"uint256","name":"amountOutMin","type":"uint256"},{"internalType":"uint256","name":"deadline","type":"uint256"},{"internalType":"uint256","name":"nonce","type":"uint256"}],"internalType":"struct Relayer.SwapOrder","name":"order","type":"tuple"},{"internalType":"bytes","name":"signature","type":"bytes"},{"internalType":"uint256","name":"domainId","type":"uint256"},{"internalType":"uint256","name":"aggregationId","type":"uint256"},{"internalType":"bytes32[]","name":"publicInputs","type":"bytes32[]"},{"internalType":"bytes32[]","name":"merklePath","type":"bytes32[]"},{"internalType":"uint256","name":"leafCount","type":"uint256"},{"internalType":"uint256","name":"index","type":"uint256"}],"name":"executeSwapWithProof","outputs":[],"stateMutability":"nonpayable","type":"function"},{"inputs":[{"internalType":"address","name":"","type":"address"}],"name":"nonces","outputs":[{"internalType":"uint256","name":"","type":"uint256"}],"stateMutability":"view","type":"function"},{"inputs":[],"name":"owner","outputs":[{"internalType":"address","name":"","type":"address"}],"stateMutability":"view","type":"function"},{"inputs":[],"name":"proofVerifier","outputs":[{"internalType":"contract ProofVerifier","name":"","type":"address"}],"stateMutability":"view","type":"function"},{"inputs":[],"name":"renounceOwnership","outputs":[],"stateMutability":"nonpayable","type":"function"},{"inputs":[],"name":"router","outputs":[{"internalType":"contract Router","name":"","type":"address"}],"stateMutability":"view","type":"function"},{"inputs":[{"internalType":"address","name":"newVerifier","type":"address"}],"name":"setProofVerifier","outputs":[],"stateMutability":"nonpayable","type":"function"},{"inputs":[{"internalType":"address","name":"newRouter","type":"address"}],"name":"setRouter","outputs":[],"stateMutability":"nonpayable","type":"function"},{"inputs":[{"internalType":"address","name":"newOwner","type":"address"}],"name":"transferOwnership","outputs":[],"stateMutability":"nonpayable","type":"function"}],"evm":{"bytecode":{"linkReferences":{},"object":"610180604081815234620002bf576200182a8038038091620000228286620002c4565b8439820190608083830312620002bf576200003d83620002e8565b9160206200004d818601620002e8565b8386015190956001600160401b0391828111620002bf57846200007291830162000322565b936060820151838111620002bf576200008c920162000322565b9562000098846200037d565b95610120968752620000aa8862000531565b94610140958652848151910120978860e0528481519101209161010098838a524660a052875193868501917f8b73c3c69bb8fe3d512ecc4cf759cc79239f7b179b0ffacaa9a75d522b39400f83528986015260608501524660808501523060a085015260a0845260c084019484861090861117620002a957848852835190206080523060c052600280546001600160a01b031980821633908117909355956001600160a01b03949092859283167f8be0079c531659141344cd1fd0a4f28419497f9722a3daafe3b4186f6b6457e0600080a360016003551693841562000267575050169283156200022457508160045416176004556005541617600555610160917f25e83d01568cf6defd2513c7c7bb9c8348be514a2408c40a1b7ee45bc05e80bc835251926111ac94856200067e863960805185611084015260a05185611150015260c0518561104e015260e051856110d3015251846110f9015251836109010152518261092a0152518181816103850152610acb0152f35b60649086519062461bcd60e51b82526004820152601e60248201527f52656c617965723a207a65726f207665726966696572206164647265737300006044820152fd5b907f52656c617965723a207a65726f20726f757465722061646472657373000000006101046064938962461bcd60e51b855260c4820152601c60e48201520152fd5b634e487b7160e01b600052604160045260246000fd5b600080fd5b601f909101601f19168101906001600160401b03821190821017620002a957604052565b51906001600160a01b0382168203620002bf57565b60005b838110620003115750506000910152565b818101518382015260200162000300565b81601f82011215620002bf5780516001600160401b038111620002a9576040519262000359601f8301601f191660200185620002c4565b81845260208284010111620002bf576200037a9160208085019101620002fd565b90565b80516020919082811015620003fd575090601f825111620003bb5780825192015190808310620003ac57501790565b82600019910360031b1b161790565b604490620003ef9260405193849263305a27a960e01b845280600485015282519283918260248701528686019101620002fd565b601f01601f19168101030190fd5b6001600160401b038111620002a9576000928354926001938481811c9116801562000526575b838210146200051257601f8111620004dc575b5081601f8411600114620004755750928293918392869462000469575b50501b916000199060031b1c191617905560ff90565b01519250388062000453565b919083601f1981168780528488209488905b88838310620004c15750505010620004a7575b505050811b01905560ff90565b015160001960f88460031b161c191690553880806200049a565b85870151885590960195948501948793509081019062000487565b85805284601f848820920160051c820191601f860160051c015b8281106200050657505062000436565b878155018590620004f6565b634e487b7160e01b86526022600452602486fd5b90607f169062000423565b8051602090818110156200055e5750601f825111620003bb5780825192015190808310620003ac57501790565b9192916001600160401b038111620002a95760019182548381811c9116801562000672575b828210146200065c57601f811162000623575b5080601f8311600114620005d6575081929394600092620005ca575b5050600019600383901b1c191690821b17905560ff90565b015190503880620005b2565b90601f198316958460005282600020926000905b8882106200060b5750508385969710620004a757505050811b01905560ff90565b808785968294968601518155019501930190620005ea565b8360005283601f83600020920160051c820191601f850160051c015b8281106200064f57505062000596565b600081550184906200063f565b634e487b7160e01b600052602260045260246000fd5b90607f16906200058356fe608080604052600436101561001357600080fd5b60003560e01c9081634bc30ea714610ab557508063715018a614610a585780637ecebe0014610a1e5780637fa417b3146109f557806384b0196e146108eb5780638da5cb5b146108c2578063c0d7865514610835578063dc443e7614610217578063df6244db1461018a578063f2fde38b146100c65763f887ea401461009857600080fd5b346100c15760003660031901126100c1576004546040516001600160a01b039091168152602090f35b600080fd5b346100c15760203660031901126100c1576100df610aee565b6100e7610b75565b6001600160a01b0390811690811561013657600254826001600160601b0360a01b821617600255167f8be0079c531659141344cd1fd0a4f28419497f9722a3daafe3b4186f6b6457e0600080a3005b60405162461bcd60e51b815260206004820152602660248201527f4f776e61626c653a206e6577206f776e657220697320746865207a65726f206160448201526564647265737360d01b6064820152608490fd5b346100c15760203660031901126100c1576101a3610aee565b6101ab610b75565b6001600160a01b031680156101d2576001600160601b0360a01b6005541617600555600080f35b60405162461bcd60e51b815260206004820152601e60248201527f52656c617965723a207a65726f207665726966696572206164647265737300006044820152606490fd5b346100c15736600319016101c081126100c15760e0136100c15767ffffffffffffffff60e435116100c15736602360e4350112156100c15767ffffffffffffffff60e43560040135116100c15736602460e4356004013560e4350101116100c1576101443567ffffffffffffffff81116100c157610299903690600401610b44565b906101643567ffffffffffffffff81116100c1576102bb903690600401610b44565b92906002600354146107f057600260035560a43542116107b2576001600160a01b036102e5610e04565b16600052600660205260406000205460c43503610774576040518060e081011067ffffffffffffffff60e08301111761075e5760e08101604052610327610aee565b808252906024356001600160a01b03811681036100c15760208201819052604435906001600160a01b03821682036100c1578160408401526064356060840152608435608084015260a43560a084015260c43560c0840152604051937f0000000000000000000000000000000000000000000000000000000000000000602086015260018060a01b0316604085015260018060a01b0316606084015260018060a01b0316608083015260643560a083015260843560c083015260a43560e083015261010060c4358184015282528161012081011067ffffffffffffffff6101208401111761075e5761048d60428361012061049595016040526020815191012061042f61104b565b906040519161190160f01b83526002830152602282015220604051906104656020601f19601f60e4356004013501160183610be9565b60e43560048101358084529060240160208401376000602060e4356004013584010152610f84565b929092610e6a565b516001600160a01b03908116911603610719576020926104f59261050760018060a01b03600554169360405197889687958695633402b28b60e01b875261010435600488015261012435602488015260c0604488015260c4870191610e46565b84810360031901606486015291610e46565b6101843560848301526101a43560a483015203915afa90811561067e576000916106de575b50156106a057600160c435018060c4351161068a576001600160a01b03610551610e04565b16600052600660205260406000205560018060a01b03600454166020610575610e04565b60a461057f610e1a565b91600061058a610e30565b60405163313304b960e11b81526001600160a01b03938416600482015294831660248601529091166044840152606480359084015260848035908401529193849283915af190811561067e5760009161064c575b506105e7610e04565b6105ef610e1a565b917f83c47fb3e4a17f2bfc838c91be92acaa7df4129399132119effbb240e0017094606061061b610e30565b6040805160643581526084356020820152908101949094526001600160a01b03908116958116941692a46001600355005b90506020813d602011610676575b8161066760209383610be9565b810103126100c15751816105de565b3d915061065a565b6040513d6000823e3d90fd5b634e487b7160e01b600052601160045260246000fd5b60405162461bcd60e51b81526020600482015260166024820152752932b630bcb2b91d1034b73b30b634b210383937b7b360511b6044820152606490fd5b90506020813d602011610711575b816106f960209383610be9565b810103126100c1575180151581036100c1578161052c565b3d91506106ec565b60405162461bcd60e51b815260206004820152601a60248201527f52656c617965723a20696e76616c6964207369676e61747572650000000000006044820152606490fd5b634e487b7160e01b600052604160045260246000fd5b60405162461bcd60e51b815260206004820152601660248201527552656c617965723a20696e76616c6964206e6f6e636560501b6044820152606490fd5b60405162461bcd60e51b815260206004820152601660248201527514995b185e595c8e881bdc99195c88195e1c1a5c995960521b6044820152606490fd5b60405162461bcd60e51b815260206004820152601f60248201527f5265656e7472616e637947756172643a207265656e7472616e742063616c6c006044820152606490fd5b346100c15760203660031901126100c15761084e610aee565b610856610b75565b6001600160a01b0316801561087d576001600160601b0360a01b6004541617600455600080f35b60405162461bcd60e51b815260206004820152601c60248201527f52656c617965723a207a65726f20726f757465722061646472657373000000006044820152606490fd5b346100c15760003660031901126100c1576002546040516001600160a01b039091168152602090f35b346100c15760003660031901126100c1576109257f0000000000000000000000000000000000000000000000000000000000000000610c0b565b61094e7f0000000000000000000000000000000000000000000000000000000000000000610d31565b60405160208082019282841067ffffffffffffffff85111761075e5791816109a8859461099a979660405260008452604051978897600f60f81b895260e0858a015260e0890190610b04565b908782036040890152610b04565b91466060870152306080870152600060a087015285830360c0870152519182815201929160005b8281106109de57505050500390f35b8351855286955093810193928101926001016109cf565b346100c15760003660031901126100c1576005546040516001600160a01b039091168152602090f35b346100c15760203660031901126100c1576001600160a01b03610a3f610aee565b1660005260066020526020604060002054604051908152f35b346100c15760003660031901126100c157610a71610b75565b600280546001600160a01b031981169091556000906001600160a01b03167f8be0079c531659141344cd1fd0a4f28419497f9722a3daafe3b4186f6b6457e08280a3005b346100c15760003660031901126100c1576020907f00000000000000000000000000000000000000000000000000000000000000008152f35b600435906001600160a01b03821682036100c157565b919082519283825260005b848110610b30575050826000602080949584010152601f8019910116010190565b602081830181015184830182015201610b0f565b9181601f840112156100c15782359167ffffffffffffffff83116100c1576020808501948460051b0101116100c157565b6002546001600160a01b03163303610b8957565b606460405162461bcd60e51b815260206004820152602060248201527f4f776e61626c653a2063616c6c6572206973206e6f7420746865206f776e65726044820152fd5b6040810190811067ffffffffffffffff82111761075e57604052565b90601f8019910116810190811067ffffffffffffffff82111761075e57604052565b60ff8114610c495760ff811690601f8211610c375760405191610c2d83610bcd565b8252602082015290565b604051632cd44ac360e21b8152600490fd5b506040516000805490600182811c90808416938415610d27575b6020948584108114610d135783875286949392918115610cf35750600114610c97575b5050610c9492500382610be9565b90565b60008080527f290decd9548b62a8d60345a988386fc84ba6bc95484008f6362f93160ef3e56395935091905b818310610cdb575050610c9493508201013880610c86565b85548784018501529485019486945091830191610cc3565b915050610c9494925060ff191682840152151560051b8201013880610c86565b634e487b7160e01b85526022600452602485fd5b91607f1691610c63565b60ff8114610d535760ff811690601f8211610c375760405191610c2d83610bcd565b50604051600060019081549182811c90808416938415610dfa575b6020948584108114610d135783875286949392918115610cf35750600114610d9e575050610c9492500382610be9565b60008181527fb10e2d527612073b26eecdfd717e6a320cf44b4afac2b0732d9fcbe2b7fa0cf695935091905b818310610de2575050610c9493508201013880610c86565b85548784018501529485019486945091830191610dca565b91607f1691610d6e565b6004356001600160a01b03811681036100c15790565b6024356001600160a01b03811681036100c15790565b6044356001600160a01b03811681036100c15790565b81835290916001600160fb1b0383116100c15760209260051b809284830137010190565b6005811015610f6e5780610e7b5750565b60018103610ec85760405162461bcd60e51b815260206004820152601860248201527f45434453413a20696e76616c6964207369676e617475726500000000000000006044820152606490fd5b60028103610f155760405162461bcd60e51b815260206004820152601f60248201527f45434453413a20696e76616c6964207369676e6174757265206c656e677468006044820152606490fd5b600314610f1e57565b60405162461bcd60e51b815260206004820152602260248201527f45434453413a20696e76616c6964207369676e6174757265202773272076616c604482015261756560f01b6064820152608490fd5b634e487b7160e01b600052602160045260246000fd5b906041815114600014610fb257610fae916020820151906060604084015193015160001a90610fbc565b9091565b5050600090600290565b9291907f7fffffffffffffffffffffffffffffff5d576e7357a4501ddfe92f46681b20a0831161103f5791608094939160ff602094604051948552168484015260408301526060820152600093849182805260015afa156110325781516001600160a01b0381161561102c579190565b50600190565b50604051903d90823e3d90fd5b50505050600090600390565b307f00000000000000000000000000000000000000000000000000000000000000006001600160a01b0316148061114d575b156110a6577f000000000000000000000000000000000000000000000000000000000000000090565b60405160208101907f8b73c3c69bb8fe3d512ecc4cf759cc79239f7b179b0ffacaa9a75d522b39400f82527f000000000000000000000000000000000000000000000000000000000000000060408201527f000000000000000000000000000000000000000000000000000000000000000060608201524660808201523060a082015260a0815260c0810181811067ffffffffffffffff82111761075e5760405251902090565b507f0000000000000000000000000000000000000000000000000000000000000000461461107d56fea2646970667358221220e6071a359dd799e62fb792185f6700ea9a4757fd6fc46d04136939bf04c3963d64736f6c63430008140033","opcodes":"PUSH2 0x180 PUSH1 0x40 DUP2 DUP2 MSTORE CALLVALUE PUSH3 0x2BF JUMPI PUSH3 0x182A DUP1 CODESIZE SUB DUP1 SWAP2 PUSH3 0x22 DUP3 DUP7 PUSH3 0x2C4 JUMP JUMPDEST DUP5 CODECOPY DUP3 ADD SWAP1 PUSH1 0x80 DUP4 DUP4 SUB SLT PUSH3 0x2BF JUMPI PUSH3 0x3D DUP4 PUSH3 0x2E8 JUMP JUMPDEST SWAP2 PUSH1 0x20 PUSH3 0x4D DUP2 DUP7 ADD PUSH3 0x2E8 JUMP JUMPDEST DUP4 DUP7 ADD MLOAD SWAP1 SWAP6 PUSH1 0x1 PUSH1 0x1 PUSH1 0x40 SHL SUB SWAP2 DUP3 DUP2 GT PUSH3 0x2BF JUMPI DUP5 PUSH3 0x72 SWAP2 DUP4 ADD PUSH3 0x322 JUMP JUMPDEST SWAP4 PUSH1 0x60 DUP3 ADD MLOAD DUP4 DUP2 GT PUSH3 0x2BF JUMPI PUSH3 0x8C SWAP3 ADD PUSH3 0x322 JUMP JUMPDEST SWAP6 PUSH3 0x98 DUP5 PUSH3 0x37D JUMP JUMPDEST SWAP6 PUSH2 0x120 SWAP7 DUP8 MSTORE PUSH3 0xAA DUP9 PUSH3 0x531 JUMP JUMPDEST SWAP5 PUSH2 0x140 SWAP6 DUP7 MSTORE DUP5 DUP2 MLOAD SWAP2 ADD KECCAK256 SWAP8 DUP9 PUSH1 0xE0 MSTORE DUP5 DUP2 MLOAD SWAP2 ADD KECCAK256 SWAP2 PUSH2 0x100 SWAP9 DUP4 DUP11 MSTORE CHAINID PUSH1 0xA0 MSTORE DUP8 MLOAD SWAP4 DUP7 DUP6 ADD SWAP2 PUSH32 0x8B73C3C69BB8FE3D512ECC4CF759CC79239F7B179B0FFACAA9A75D522B39400F DUP4 MSTORE DUP10 DUP7 ADD MSTORE PUSH1 0x60 DUP6 ADD MSTORE CHAINID PUSH1 0x80 DUP6 ADD MSTORE ADDRESS PUSH1 0xA0 DUP6 ADD MSTORE PUSH1 0xA0 DUP5 MSTORE PUSH1 0xC0 DUP5 ADD SWAP5 DUP5 DUP7 LT SWAP1 DUP7 GT OR PUSH3 0x2A9 JUMPI DUP5 DUP9 MSTORE DUP4 MLOAD SWAP1 KECCAK256 PUSH1 0x80 MSTORE ADDRESS PUSH1 0xC0 MSTORE PUSH1 0x2 DUP1 SLOAD PUSH1 0x1 PUSH1 0x1 PUSH1 0xA0 SHL SUB NOT DUP1 DUP3 AND CALLER SWAP1 DUP2 OR SWAP1 SWAP4 SSTORE SWAP6 PUSH1 0x1 PUSH1 0x1 PUSH1 0xA0 SHL SUB SWAP5 SWAP1 SWAP3 DUP6 SWAP3 DUP4 AND PUSH32 0x8BE0079C531659141344CD1FD0A4F28419497F9722A3DAAFE3B4186F6B6457E0 PUSH1 0x0 DUP1 LOG3 PUSH1 0x1 PUSH1 0x3 SSTORE AND SWAP4 DUP5 ISZERO PUSH3 0x267 JUMPI POP POP AND SWAP3 DUP4 ISZERO PUSH3 0x224 JUMPI POP DUP2 PUSH1 0x4 SLOAD AND OR PUSH1 0x4 SSTORE PUSH1 0x5 SLOAD AND OR PUSH1 0x5 SSTORE PUSH2 0x160 SWAP2 PUSH32 0x25E83D01568CF6DEFD2513C7C7BB9C8348BE514A2408C40A1B7EE45BC05E80BC DUP4 MSTORE MLOAD SWAP3 PUSH2 0x11AC SWAP5 DUP6 PUSH3 0x67E DUP7 CODECOPY PUSH1 0x80 MLOAD DUP6 PUSH2 0x1084 ADD MSTORE PUSH1 0xA0 MLOAD DUP6 PUSH2 0x1150 ADD MSTORE PUSH1 0xC0 MLOAD DUP6 PUSH2 0x104E ADD MSTORE PUSH1 0xE0 MLOAD DUP6 PUSH2 0x10D3 ADD MSTORE MLOAD DUP5 PUSH2 0x10F9 ADD MSTORE MLOAD DUP4 PUSH2 0x901 ADD MSTORE MLOAD DUP3 PUSH2 0x92A ADD MSTORE MLOAD DUP2 DUP2 DUP2 PUSH2 0x385 ADD MSTORE PUSH2 0xACB ADD MSTORE RETURN JUMPDEST PUSH1 0x64 SWAP1 DUP7 MLOAD SWAP1 PUSH3 0x461BCD PUSH1 0xE5 SHL DUP3 MSTORE PUSH1 0x4 DUP3 ADD MSTORE PUSH1 0x1E PUSH1 0x24 DUP3 ADD MSTORE PUSH32 0x52656C617965723A207A65726F20766572696669657220616464726573730000 PUSH1 0x44 DUP3 ADD MSTORE REVERT JUMPDEST SWAP1 PUSH32 0x52656C617965723A207A65726F20726F75746572206164647265737300000000 PUSH2 0x104 PUSH1 0x64 SWAP4 DUP10 PUSH3 0x461BCD PUSH1 0xE5 SHL DUP6 MSTORE PUSH1 0xC4 DUP3 ADD MSTORE PUSH1 0x1C PUSH1 0xE4 DUP3 ADD MSTORE ADD MSTORE REVERT JUMPDEST PUSH4 0x4E487B71 PUSH1 0xE0 SHL PUSH1 0x0 MSTORE PUSH1 0x41 PUSH1 0x4 MSTORE PUSH1 0x24 PUSH1 0x0 REVERT JUMPDEST PUSH1 0x0 DUP1 REVERT JUMPDEST PUSH1 0x1F SWAP1 SWAP2 ADD PUSH1 0x1F NOT AND DUP2 ADD SWAP1 PUSH1 0x1 PUSH1 0x1 PUSH1 0x40 SHL SUB DUP3 GT SWAP1 DUP3 LT OR PUSH3 0x2A9 JUMPI PUSH1 0x40 MSTORE JUMP JUMPDEST MLOAD SWAP1 PUSH1 0x1 PUSH1 0x1 PUSH1 0xA0 SHL SUB DUP3 AND DUP3 SUB PUSH3 0x2BF JUMPI JUMP JUMPDEST PUSH1 0x0 JUMPDEST DUP4 DUP2 LT PUSH3 0x311 JUMPI POP POP PUSH1 0x0 SWAP2 ADD MSTORE JUMP JUMPDEST DUP2 DUP2 ADD MLOAD DUP4 DUP3 ADD MSTORE PUSH1 0x20 ADD PUSH3 0x300 JUMP JUMPDEST DUP2 PUSH1 0x1F DUP3 ADD SLT ISZERO PUSH3 0x2BF JUMPI DUP1 MLOAD PUSH1 0x1 PUSH1 0x1 PUSH1 0x40 SHL SUB DUP2 GT PUSH3 0x2A9 JUMPI PUSH1 0x40 MLOAD SWAP3 PUSH3 0x359 PUSH1 0x1F DUP4 ADD PUSH1 0x1F NOT AND PUSH1 0x20 ADD DUP6 PUSH3 0x2C4 JUMP JUMPDEST DUP2 DUP5 MSTORE PUSH1 0x20 DUP3 DUP5 ADD ADD GT PUSH3 0x2BF JUMPI PUSH3 0x37A SWAP2 PUSH1 0x20 DUP1 DUP6 ADD SWAP2 ADD PUSH3 0x2FD JUMP JUMPDEST SWAP1 JUMP JUMPDEST DUP1 MLOAD PUSH1 0x20 SWAP2 SWAP1 DUP3 DUP2 LT ISZERO PUSH3 0x3FD JUMPI POP SWAP1 PUSH1 0x1F DUP3 MLOAD GT PUSH3 0x3BB JUMPI DUP1 DUP3 MLOAD SWAP3 ADD MLOAD SWAP1 DUP1 DUP4 LT PUSH3 0x3AC JUMPI POP OR SWAP1 JUMP JUMPDEST DUP3 PUSH1 0x0 NOT SWAP2 SUB PUSH1 0x3 SHL SHL AND OR SWAP1 JUMP JUMPDEST PUSH1 0x44 SWAP1 PUSH3 0x3EF SWAP3 PUSH1 0x40 MLOAD SWAP4 DUP5 SWAP3 PUSH4 0x305A27A9 PUSH1 0xE0 SHL DUP5 MSTORE DUP1 PUSH1 0x4 DUP6 ADD MSTORE DUP3 MLOAD SWAP3 DUP4 SWAP2 DUP3 PUSH1 0x24 DUP8 ADD MSTORE DUP7 DUP7 ADD SWAP2 ADD PUSH3 0x2FD JUMP JUMPDEST PUSH1 0x1F ADD PUSH1 0x1F NOT AND DUP2 ADD SUB ADD SWAP1 REVERT JUMPDEST PUSH1 0x1 PUSH1 0x1 PUSH1 0x40 SHL SUB DUP2 GT PUSH3 0x2A9 JUMPI PUSH1 0x0 SWAP3 DUP4 SLOAD SWAP3 PUSH1 0x1 SWAP4 DUP5 DUP2 DUP2 SHR SWAP2 AND DUP1 ISZERO PUSH3 0x526 JUMPI JUMPDEST DUP4 DUP3 LT EQ PUSH3 0x512 JUMPI PUSH1 0x1F DUP2 GT PUSH3 0x4DC JUMPI JUMPDEST POP DUP2 PUSH1 0x1F DUP5 GT PUSH1 0x1 EQ PUSH3 0x475 JUMPI POP SWAP3 DUP3 SWAP4 SWAP2 DUP4 SWAP3 DUP7 SWAP5 PUSH3 0x469 JUMPI JUMPDEST POP POP SHL SWAP2 PUSH1 0x0 NOT SWAP1 PUSH1 0x3 SHL SHR NOT AND OR SWAP1 SSTORE PUSH1 0xFF SWAP1 JUMP JUMPDEST ADD MLOAD SWAP3 POP CODESIZE DUP1 PUSH3 0x453 JUMP JUMPDEST SWAP2 SWAP1 DUP4 PUSH1 0x1F NOT DUP2 AND DUP8 DUP1 MSTORE DUP5 DUP9 KECCAK256 SWAP5 DUP9 SWAP1 JUMPDEST DUP9 DUP4 DUP4 LT PUSH3 0x4C1 JUMPI POP POP POP LT PUSH3 0x4A7 JUMPI JUMPDEST POP POP POP DUP2 SHL ADD SWAP1 SSTORE PUSH1 0xFF SWAP1 JUMP JUMPDEST ADD MLOAD PUSH1 0x0 NOT PUSH1 0xF8 DUP5 PUSH1 0x3 SHL AND SHR NOT AND SWAP1 SSTORE CODESIZE DUP1 DUP1 PUSH3 0x49A JUMP JUMPDEST DUP6 DUP8 ADD MLOAD DUP9 SSTORE SWAP1 SWAP7 ADD SWAP6 SWAP5 DUP6 ADD SWAP5 DUP8 SWAP4 POP SWAP1 DUP2 ADD SWAP1 PUSH3 0x487 JUMP JUMPDEST DUP6 DUP1 MSTORE DUP5 PUSH1 0x1F DUP5 DUP9 KECCAK256 SWAP3 ADD PUSH1 0x5 SHR DUP3 ADD SWAP2 PUSH1 0x1F DUP7 ADD PUSH1 0x5 SHR ADD JUMPDEST DUP3 DUP2 LT PUSH3 0x506 JUMPI POP POP PUSH3 0x436 JUMP JUMPDEST DUP8 DUP2 SSTORE ADD DUP6 SWAP1 PUSH3 0x4F6 JUMP JUMPDEST PUSH4 0x4E487B71 PUSH1 0xE0 SHL DUP7 MSTORE PUSH1 0x22 PUSH1 0x4 MSTORE PUSH1 0x24 DUP7 REVERT JUMPDEST SWAP1 PUSH1 0x7F AND SWAP1 PUSH3 0x423 JUMP JUMPDEST DUP1 MLOAD PUSH1 0x20 SWAP1 DUP2 DUP2 LT ISZERO PUSH3 0x55E JUMPI POP PUSH1 0x1F DUP3 MLOAD GT PUSH3 0x3BB JUMPI DUP1 DUP3 MLOAD SWAP3 ADD MLOAD SWAP1 DUP1 DUP4 LT PUSH3 0x3AC JUMPI POP OR SWAP1 JUMP JUMPDEST SWAP2 SWAP3 SWAP2 PUSH1 0x1 PUSH1 0x1 PUSH1 0x40 SHL SUB DUP2 GT PUSH3 0x2A9 JUMPI PUSH1 0x1 SWAP2 DUP3 SLOAD DUP4 DUP2 DUP2 SHR SWAP2 AND DUP1 ISZERO PUSH3 0x672 JUMPI JUMPDEST DUP3 DUP3 LT EQ PUSH3 0x65C JUMPI PUSH1 0x1F DUP2 GT PUSH3 0x623 JUMPI JUMPDEST POP DUP1 PUSH1 0x1F DUP4 GT PUSH1 0x1 EQ PUSH3 0x5D6 JUMPI POP DUP2 SWAP3 SWAP4 SWAP5 PUSH1 0x0 SWAP3 PUSH3 0x5CA JUMPI JUMPDEST POP POP PUSH1 0x0 NOT PUSH1 0x3 DUP4 SWAP1 SHL SHR NOT AND SWAP1 DUP3 SHL OR SWAP1 SSTORE PUSH1 0xFF SWAP1 JUMP JUMPDEST ADD MLOAD SWAP1 POP CODESIZE DUP1 PUSH3 0x5B2 JUMP JUMPDEST SWAP1 PUSH1 0x1F NOT DUP4 AND SWAP6 DUP5 PUSH1 0x0 MSTORE DUP3 PUSH1 0x0 KECCAK256 SWAP3 PUSH1 0x0 SWAP1 JUMPDEST DUP9 DUP3 LT PUSH3 0x60B JUMPI POP POP DUP4 DUP6 SWAP7 SWAP8 LT PUSH3 0x4A7 JUMPI POP POP POP DUP2 SHL ADD SWAP1 SSTORE PUSH1 0xFF SWAP1 JUMP JUMPDEST DUP1 DUP8 DUP6 SWAP7 DUP3 SWAP5 SWAP7 DUP7 ADD MLOAD DUP2 SSTORE ADD SWAP6 ADD SWAP4 ADD SWAP1 PUSH3 0x5EA JUMP JUMPDEST DUP4 PUSH1 0x0 MSTORE DUP4 PUSH1 0x1F DUP4 PUSH1 0x0 KECCAK256 SWAP3 ADD PUSH1 0x5 SHR DUP3 ADD SWAP2 PUSH1 0x1F DUP6 ADD PUSH1 0x5 SHR ADD JUMPDEST DUP3 DUP2 LT PUSH3 0x64F JUMPI POP POP PUSH3 0x596 JUMP JUMPDEST PUSH1 0x0 DUP2 SSTORE ADD DUP5 SWAP1 PUSH3 0x63F JUMP JUMPDEST PUSH4 0x4E487B71 PUSH1 0xE0 SHL PUSH1 0x0 MSTORE PUSH1 0x22 PUSH1 0x4 MSTORE PUSH1 0x24 PUSH1 0x0 REVERT JUMPDEST SWAP1 PUSH1 0x7F AND SWAP1 PUSH3 0x583 JUMP INVALID PUSH1 0x80 DUP1 PUSH1 0x40 MSTORE PUSH1 0x4 CALLDATASIZE LT ISZERO PUSH2 0x13 JUMPI PUSH1 0x0 DUP1 REVERT JUMPDEST PUSH1 0x0 CALLDATALOAD PUSH1 0xE0 SHR SWAP1 DUP2 PUSH4 0x4BC30EA7 EQ PUSH2 0xAB5 JUMPI POP DUP1 PUSH4 0x715018A6 EQ PUSH2 0xA58 JUMPI DUP1 PUSH4 0x7ECEBE00 EQ PUSH2 0xA1E JUMPI DUP1 PUSH4 0x7FA417B3 EQ PUSH2 0x9F5 JUMPI DUP1 PUSH4 0x84B0196E EQ PUSH2 0x8EB JUMPI DUP1 PUSH4 0x8DA5CB5B EQ PUSH2 0x8C2 JUMPI DUP1 PUSH4 0xC0D78655 EQ PUSH2 0x835 JUMPI DUP1 PUSH4 0xDC443E76 EQ PUSH2 0x217 JUMPI DUP1 PUSH4 0xDF6244DB EQ PUSH2 0x18A JUMPI DUP1 PUSH4 0xF2FDE38B EQ PUSH2 0xC6 JUMPI PUSH4 0xF887EA40 EQ PUSH2 0x98 JUMPI PUSH1 0x0 DUP1 REVERT JUMPDEST CALLVALUE PUSH2 0xC1 JUMPI PUSH1 0x0 CALLDATASIZE PUSH1 0x3 NOT ADD SLT PUSH2 0xC1 JUMPI PUSH1 0x4 SLOAD PUSH1 0x40 MLOAD PUSH1 0x1 PUSH1 0x1 PUSH1 0xA0 SHL SUB SWAP1 SWAP2 AND DUP2 MSTORE PUSH1 0x20 SWAP1 RETURN JUMPDEST PUSH1 0x0 DUP1 REVERT JUMPDEST CALLVALUE PUSH2 0xC1 JUMPI PUSH1 0x20 CALLDATASIZE PUSH1 0x3 NOT ADD SLT PUSH2 0xC1 JUMPI PUSH2 0xDF PUSH2 0xAEE JUMP JUMPDEST PUSH2 0xE7 PUSH2 0xB75 JUMP JUMPDEST PUSH1 0x1 PUSH1 0x1 PUSH1 0xA0 SHL SUB SWAP1 DUP2 AND SWAP1 DUP2 ISZERO PUSH2 0x136 JUMPI PUSH1 0x2 SLOAD DUP3 PUSH1 0x1 PUSH1 0x1 PUSH1 0x60 SHL SUB PUSH1 0xA0 SHL DUP3 AND OR PUSH1 0x2 SSTORE AND PUSH32 0x8BE0079C531659141344CD1FD0A4F28419497F9722A3DAAFE3B4186F6B6457E0 PUSH1 0x0 DUP1 LOG3 STOP JUMPDEST PUSH1 0x40 MLOAD PUSH3 0x461BCD PUSH1 0xE5 SHL DUP2 MSTORE PUSH1 0x20 PUSH1 0x4 DUP3 ADD MSTORE PUSH1 0x26 PUSH1 0x24 DUP3 ADD MSTORE PUSH32 0x4F776E61626C653A206E6577206F776E657220697320746865207A65726F2061 PUSH1 0x44 DUP3 ADD MSTORE PUSH6 0x646472657373 PUSH1 0xD0 SHL PUSH1 0x64 DUP3 ADD MSTORE PUSH1 0x84 SWAP1 REVERT JUMPDEST CALLVALUE PUSH2 0xC1 JUMPI PUSH1 0x20 CALLDATASIZE PUSH1 0x3 NOT ADD SLT PUSH2 0xC1 JUMPI PUSH2 0x1A3 PUSH2 0xAEE JUMP JUMPDEST PUSH2 0x1AB PUSH2 0xB75 JUMP JUMPDEST PUSH1 0x1 PUSH1 0x1 PUSH1 0xA0 SHL SUB AND DUP1 ISZERO PUSH2 0x1D2 JUMPI PUSH1 0x1 PUSH1 0x1 PUSH1 0x60 SHL SUB PUSH1 0xA0 SHL PUSH1 0x5 SLOAD AND OR PUSH1 0x5 SSTORE PUSH1 0x0 DUP1 RETURN JUMPDEST PUSH1 0x40 MLOAD PUSH3 0x461BCD PUSH1 0xE5 SHL DUP2 MSTORE PUSH1 0x20 PUSH1 0x4 DUP3 ADD MSTORE PUSH1 0x1E PUSH1 0x24 DUP3 ADD MSTORE PUSH32 0x52656C617965723A207A65726F20766572696669657220616464726573730000 PUSH1 0x44 DUP3 ADD MSTORE PUSH1 0x64 SWAP1 REVERT JUMPDEST CALLVALUE PUSH2 0xC1 JUMPI CALLDATASIZE PUSH1 0x3 NOT ADD PUSH2 0x1C0 DUP2 SLT PUSH2 0xC1 JUMPI PUSH1 0xE0 SGT PUSH2 0xC1 JUMPI PUSH8 0xFFFFFFFFFFFFFFFF PUSH1 0xE4 CALLDATALOAD GT PUSH2 0xC1 JUMPI CALLDATASIZE PUSH1 0x23 PUSH1 0xE4 CALLDATALOAD ADD SLT ISZERO PUSH2 0xC1 JUMPI PUSH8 0xFFFFFFFFFFFFFFFF PUSH1 0xE4 CALLDATALOAD PUSH1 0x4 ADD CALLDATALOAD GT PUSH2 0xC1 JUMPI CALLDATASIZE PUSH1 0x24 PUSH1 0xE4 CALLDATALOAD PUSH1 0x4 ADD CALLDATALOAD PUSH1 0xE4 CALLDATALOAD ADD ADD GT PUSH2 0xC1 JUMPI PUSH2 0x144 CALLDATALOAD PUSH8 0xFFFFFFFFFFFFFFFF DUP2 GT PUSH2 0xC1 JUMPI PUSH2 0x299 SWAP1 CALLDATASIZE SWAP1 PUSH1 0x4 ADD PUSH2 0xB44 JUMP JUMPDEST SWAP1 PUSH2 0x164 CALLDATALOAD PUSH8 0xFFFFFFFFFFFFFFFF DUP2 GT PUSH2 0xC1 JUMPI PUSH2 0x2BB SWAP1 CALLDATASIZE SWAP1 PUSH1 0x4 ADD PUSH2 0xB44 JUMP JUMPDEST SWAP3 SWAP1 PUSH1 0x2 PUSH1 0x3 SLOAD EQ PUSH2 0x7F0 JUMPI PUSH1 0x2 PUSH1 0x3 SSTORE PUSH1 0xA4 CALLDATALOAD TIMESTAMP GT PUSH2 0x7B2 JUMPI PUSH1 0x1 PUSH1 0x1 PUSH1 0xA0 SHL SUB PUSH2 0x2E5 PUSH2 0xE04 JUMP JUMPDEST AND PUSH1 0x0 MSTORE PUSH1 0x6 PUSH1 0x20 MSTORE PUSH1 0x40 PUSH1 0x0 KECCAK256 SLOAD PUSH1 0xC4 CALLDATALOAD SUB PUSH2 0x774 JUMPI PUSH1 0x40 MLOAD DUP1 PUSH1 0xE0 DUP2 ADD LT PUSH8 0xFFFFFFFFFFFFFFFF PUSH1 0xE0 DUP4 ADD GT OR PUSH2 0x75E JUMPI PUSH1 0xE0 DUP2 ADD PUSH1 0x40 MSTORE PUSH2 0x327 PUSH2 0xAEE JUMP JUMPDEST DUP1 DUP3 MSTORE SWAP1 PUSH1 0x24 CALLDATALOAD PUSH1 0x1 PUSH1 0x1 PUSH1 0xA0 SHL SUB DUP2 AND DUP2 SUB PUSH2 0xC1 JUMPI PUSH1 0x20 DUP3 ADD DUP2 SWAP1 MSTORE PUSH1 0x44 CALLDATALOAD SWAP1 PUSH1 0x1 PUSH1 0x1 PUSH1 0xA0 SHL SUB DUP3 AND DUP3 SUB PUSH2 0xC1 JUMPI DUP2 PUSH1 0x40 DUP5 ADD MSTORE PUSH1 0x64 CALLDATALOAD PUSH1 0x60 DUP5 ADD MSTORE PUSH1 0x84 CALLDATALOAD PUSH1 0x80 DUP5 ADD MSTORE PUSH1 0xA4 CALLDATALOAD PUSH1 0xA0 DUP5 ADD MSTORE PUSH1 0xC4 CALLDATALOAD PUSH1 0xC0 DUP5 ADD MSTORE PUSH1 0x40 MLOAD SWAP4 PUSH32 0x0 PUSH1 0x20 DUP7 ADD MSTORE PUSH1 0x1 DUP1 PUSH1 0xA0 SHL SUB AND PUSH1 0x40 DUP6 ADD MSTORE PUSH1 0x1 DUP1 PUSH1 0xA0 SHL SUB AND PUSH1 0x60 DUP5 ADD MSTORE PUSH1 0x1 DUP1 PUSH1 0xA0 SHL SUB AND PUSH1 0x80 DUP4 ADD MSTORE PUSH1 0x64 CALLDATALOAD PUSH1 0xA0 DUP4 ADD MSTORE PUSH1 0x84 CALLDATALOAD PUSH1 0xC0 DUP4 ADD MSTORE PUSH1 0xA4 CALLDATALOAD PUSH1 0xE0 DUP4 ADD MSTORE PUSH2 0x100 PUSH1 0xC4 CALLDATALOAD DUP2 DUP5 ADD MSTORE DUP3 MSTORE DUP2 PUSH2 0x120 DUP2 ADD LT PUSH8 0xFFFFFFFFFFFFFFFF PUSH2 0x120 DUP5 ADD GT OR PUSH2 0x75E JUMPI PUSH2 0x48D PUSH1 0x42 DUP4 PUSH2 0x120 PUSH2 0x495 SWAP6 ADD PUSH1 0x40 MSTORE PUSH1 0x20 DUP2 MLOAD SWAP2 ADD KECCAK256 PUSH2 0x42F PUSH2 0x104B JUMP JUMPDEST SWAP1 PUSH1 0x40 MLOAD SWAP2 PUSH2 0x1901 PUSH1 0xF0 SHL DUP4 MSTORE PUSH1 0x2 DUP4 ADD MSTORE PUSH1 0x22 DUP3 ADD MSTORE KECCAK256 PUSH1 0x40 MLOAD SWAP1 PUSH2 0x465 PUSH1 0x20 PUSH1 0x1F NOT PUSH1 0x1F PUSH1 0xE4 CALLDATALOAD PUSH1 0x4 ADD CALLDATALOAD ADD AND ADD DUP4 PUSH2 0xBE9 JUMP JUMPDEST PUSH1 0xE4 CALLDATALOAD PUSH1 0x4 DUP2 ADD CALLDATALOAD DUP1 DUP5 MSTORE SWAP1 PUSH1 0x24 ADD PUSH1 0x20 DUP5 ADD CALLDATACOPY PUSH1 0x0 PUSH1 0x20 PUSH1 0xE4 CALLDATALOAD PUSH1 0x4 ADD CALLDATALOAD DUP5 ADD ADD MSTORE PUSH2 0xF84 JUMP JUMPDEST SWAP3 SWAP1 SWAP3 PUSH2 0xE6A JUMP JUMPDEST MLOAD PUSH1 0x1 PUSH1 0x1 PUSH1 0xA0 SHL SUB SWAP1 DUP2 AND SWAP2 AND SUB PUSH2 0x719 JUMPI PUSH1 0x20 SWAP3 PUSH2 0x4F5 SWAP3 PUSH2 0x507 PUSH1 0x1 DUP1 PUSH1 0xA0 SHL SUB PUSH1 0x5 SLOAD AND SWAP4 PUSH1 0x40 MLOAD SWAP8 DUP9 SWAP7 DUP8 SWAP6 DUP7 SWAP6 PUSH4 0x3402B28B PUSH1 0xE0 SHL DUP8 MSTORE PUSH2 0x104 CALLDATALOAD PUSH1 0x4 DUP9 ADD MSTORE PUSH2 0x124 CALLDATALOAD PUSH1 0x24 DUP9 ADD MSTORE PUSH1 0xC0 PUSH1 0x44 DUP9 ADD MSTORE PUSH1 0xC4 DUP8 ADD SWAP2 PUSH2 0xE46 JUMP JUMPDEST DUP5 DUP2 SUB PUSH1 0x3 NOT ADD PUSH1 0x64 DUP7 ADD MSTORE SWAP2 PUSH2 0xE46 JUMP JUMPDEST PUSH2 0x184 CALLDATALOAD PUSH1 0x84 DUP4 ADD MSTORE PUSH2 0x1A4 CALLDATALOAD PUSH1 0xA4 DUP4 ADD MSTORE SUB SWAP2 GAS STATICCALL SWAP1 DUP2 ISZERO PUSH2 0x67E JUMPI PUSH1 0x0 SWAP2 PUSH2 0x6DE JUMPI JUMPDEST POP ISZERO PUSH2 0x6A0 JUMPI PUSH1 0x1 PUSH1 0xC4 CALLDATALOAD ADD DUP1 PUSH1 0xC4 CALLDATALOAD GT PUSH2 0x68A JUMPI PUSH1 0x1 PUSH1 0x1 PUSH1 0xA0 SHL SUB PUSH2 0x551 PUSH2 0xE04 JUMP JUMPDEST AND PUSH1 0x0 MSTORE PUSH1 0x6 PUSH1 0x20 MSTORE PUSH1 0x40 PUSH1 0x0 KECCAK256 SSTORE PUSH1 0x1 DUP1 PUSH1 0xA0 SHL SUB PUSH1 0x4 SLOAD AND PUSH1 0x20 PUSH2 0x575 PUSH2 0xE04 JUMP JUMPDEST PUSH1 0xA4 PUSH2 0x57F PUSH2 0xE1A JUMP JUMPDEST SWAP2 PUSH1 0x0 PUSH2 0x58A PUSH2 0xE30 JUMP JUMPDEST PUSH1 0x40 MLOAD PUSH4 0x313304B9 PUSH1 0xE1 SHL DUP2 MSTORE PUSH1 0x1 PUSH1 0x1 PUSH1 0xA0 SHL SUB SWAP4 DUP5 AND PUSH1 0x4 DUP3 ADD MSTORE SWAP5 DUP4 AND PUSH1 0x24 DUP7 ADD MSTORE SWAP1 SWAP2 AND PUSH1 0x44 DUP5 ADD MSTORE PUSH1 0x64 DUP1 CALLDATALOAD SWAP1 DUP5 ADD MSTORE PUSH1 0x84 DUP1 CALLDATALOAD SWAP1 DUP5 ADD MSTORE SWAP2 SWAP4 DUP5 SWAP3 DUP4 SWAP2 GAS CALL SWAP1 DUP2 ISZERO PUSH2 0x67E JUMPI PUSH1 0x0 SWAP2 PUSH2 0x64C JUMPI JUMPDEST POP PUSH2 0x5E7 PUSH2 0xE04 JUMP JUMPDEST PUSH2 0x5EF PUSH2 0xE1A JUMP JUMPDEST SWAP2 PUSH32 0x83C47FB3E4A17F2BFC838C91BE92ACAA7DF4129399132119EFFBB240E0017094 PUSH1 0x60 PUSH2 0x61B PUSH2 0xE30 JUMP JUMPDEST PUSH1 0x40 DUP1 MLOAD PUSH1 0x64 CALLDATALOAD DUP2 MSTORE PUSH1 0x84 CALLDATALOAD PUSH1 0x20 DUP3 ADD MSTORE SWAP1 DUP2 ADD SWAP5 SWAP1 SWAP5 MSTORE PUSH1 0x1 PUSH1 0x1 PUSH1 0xA0 SHL SUB SWAP1 DUP2 AND SWAP6 DUP2 AND SWAP5 AND SWAP3 LOG4 PUSH1 0x1 PUSH1 0x3 SSTORE STOP JUMPDEST SWAP1 POP PUSH1 0x20 DUP2 RETURNDATASIZE PUSH1 0x20 GT PUSH2 0x676 JUMPI JUMPDEST DUP2 PUSH2 0x667 PUSH1 0x20 SWAP4 DUP4 PUSH2 0xBE9 JUMP JUMPDEST DUP2 ADD SUB SLT PUSH2 0xC1 JUMPI MLOAD DUP2 PUSH2 0x5DE JUMP JUMPDEST RETURNDATASIZE SWAP2 POP PUSH2 0x65A JUMP JUMPDEST PUSH1 0x40 MLOAD RETURNDATASIZE PUSH1 0x0 DUP3 RETURNDATACOPY RETURNDATASIZE SWAP1 REVERT JUMPDEST PUSH4 0x4E487B71 PUSH1 0xE0 SHL PUSH1 0x0 MSTORE PUSH1 0x11 PUSH1 0x4 MSTORE PUSH1 0x24 PUSH1 0x0 REVERT JUMPDEST PUSH1 0x40 MLOAD PUSH3 0x461BCD PUSH1 0xE5 SHL DUP2 MSTORE PUSH1 0x20 PUSH1 0x4 DUP3 ADD MSTORE PUSH1 0x16 PUSH1 0x24 DUP3 ADD MSTORE PUSH22 0x2932B630BCB2B91D1034B73B30B634B210383937B7B3 PUSH1 0x51 SHL PUSH1 0x44 DUP3 ADD MSTORE PUSH1 0x64 SWAP1 REVERT JUMPDEST SWAP1 POP PUSH1 0x20 DUP2 RETURNDATASIZE PUSH1 0x20 GT PUSH2 0x711 JUMPI JUMPDEST DUP2 PUSH2 0x6F9 PUSH1 0x20 SWAP4 DUP4 PUSH2 0xBE9 JUMP JUMPDEST DUP2 ADD SUB SLT PUSH2 0xC1 JUMPI MLOAD DUP1 ISZERO ISZERO DUP2 SUB PUSH2 0xC1 JUMPI DUP2 PUSH2 0x52C JUMP JUMPDEST RETURNDATASIZE SWAP2 POP PUSH2 0x6EC JUMP JUMPDEST PUSH1 0x40 MLOAD PUSH3 0x461BCD PUSH1 0xE5 SHL DUP2 MSTORE PUSH1 0x20 PUSH1 0x4 DUP3 ADD MSTORE PUSH1 0x1A PUSH1 0x24 DUP3 ADD MSTORE PUSH32 0x52656C617965723A20696E76616C6964207369676E6174757265000000000000 PUSH1 0x44 DUP3 ADD MSTORE PUSH1 0x64 SWAP1 REVERT JUMPDEST PUSH4 0x4E487B71 PUSH1 0xE0 SHL PUSH1 0x0 MSTORE PUSH1 0x41 PUSH1 0x4 MSTORE PUSH1 0x24 PUSH1 0x0 REVERT JUMPDEST PUSH1 0x40 MLOAD PUSH3 0x461BCD PUSH1 0xE5 SHL DUP2 MSTORE PUSH1 0x20 PUSH1 0x4 DUP3 ADD MSTORE PUSH1 0x16 PUSH1 0x24 DUP3 ADD MSTORE PUSH22 0x52656C617965723A20696E76616C6964206E6F6E6365 PUSH1 0x50 SHL PUSH1 0x44 DUP3 ADD MSTORE PUSH1 0x64 SWAP1 REVERT JUMPDEST PUSH1 0x40 MLOAD PUSH3 0x461BCD PUSH1 0xE5 SHL DUP2 MSTORE PUSH1 0x20 PUSH1 0x4 DUP3 ADD MSTORE PUSH1 0x16 PUSH1 0x24 DUP3 ADD MSTORE PUSH22 0x14995B185E595C8E881BDC99195C88195E1C1A5C9959 PUSH1 0x52 SHL PUSH1 0x44 DUP3 ADD MSTORE PUSH1 0x64 SWAP1 REVERT JUMPDEST PUSH1 0x40 MLOAD PUSH3 0x461BCD PUSH1 0xE5 SHL DUP2 MSTORE PUSH1 0x20 PUSH1 0x4 DUP3 ADD MSTORE PUSH1 0x1F PUSH1 0x24 DUP3 ADD MSTORE PUSH32 0x5265656E7472616E637947756172643A207265656E7472616E742063616C6C00 PUSH1 0x44 DUP3 ADD MSTORE PUSH1 0x64 SWAP1 REVERT JUMPDEST CALLVALUE PUSH2 0xC1 JUMPI PUSH1 0x20 CALLDATASIZE PUSH1 0x3 NOT ADD SLT PUSH2 0xC1 JUMPI PUSH2 0x84E PUSH2 0xAEE JUMP JUMPDEST PUSH2 0x856 PUSH2 0xB75 JUMP JUMPDEST PUSH1 0x1 PUSH1 0x1 PUSH1 0xA0 SHL SUB AND DUP1 ISZERO PUSH2 0x87D JUMPI PUSH1 0x1 PUSH1 0x1 PUSH1 0x60 SHL SUB PUSH1 0xA0 SHL PUSH1 0x4 SLOAD AND OR PUSH1 0x4 SSTORE PUSH1 0x0 DUP1 RETURN JUMPDEST PUSH1 0x40 MLOAD PUSH3 0x461BCD PUSH1 0xE5 SHL DUP2 MSTORE PUSH1 0x20 PUSH1 0x4 DUP3 ADD MSTORE PUSH1 0x1C PUSH1 0x24 DUP3 ADD MSTORE PUSH32 0x52656C617965723A207A65726F20726F75746572206164647265737300000000 PUSH1 0x44 DUP3 ADD MSTORE PUSH1 0x64 SWAP1 REVERT JUMPDEST CALLVALUE PUSH2 0xC1 JUMPI PUSH1 0x0 CALLDATASIZE PUSH1 0x3 NOT ADD SLT PUSH2 0xC1 JUMPI PUSH1 0x2 SLOAD PUSH1 0x40 MLOAD PUSH1 0x1 PUSH1 0x1 PUSH1 0xA0 SHL SUB SWAP1 SWAP2 AND DUP2 MSTORE PUSH1 0x20 SWAP1 RETURN JUMPDEST CALLVALUE PUSH2 0xC1 JUMPI PUSH1 0x0 CALLDATASIZE PUSH1 0x3 NOT ADD SLT PUSH2 0xC1 JUMPI PUSH2 0x925 PUSH32 0x0 PUSH2 0xC0B JUMP JUMPDEST PUSH2 0x94E PUSH32 0x0 PUSH2 0xD31 JUMP JUMPDEST PUSH1 0x40 MLOAD PUSH1 0x20 DUP1 DUP3 ADD SWAP3 DUP3 DUP5 LT PUSH8 0xFFFFFFFFFFFFFFFF DUP6 GT OR PUSH2 0x75E JUMPI SWAP2 DUP2 PUSH2 0x9A8 DUP6 SWAP5 PUSH2 0x99A SWAP8 SWAP7 PUSH1 0x40 MSTORE PUSH1 0x0 DUP5 MSTORE PUSH1 0x40 MLOAD SWAP8 DUP9 SWAP8 PUSH1 0xF PUSH1 0xF8 SHL DUP10 MSTORE PUSH1 0xE0 DUP6 DUP11 ADD MSTORE PUSH1 0xE0 DUP10 ADD SWAP1 PUSH2 0xB04 JUMP JUMPDEST SWAP1 DUP8 DUP3 SUB PUSH1 0x40 DUP10 ADD MSTORE PUSH2 0xB04 JUMP JUMPDEST SWAP2 CHAINID PUSH1 0x60 DUP8 ADD MSTORE ADDRESS PUSH1 0x80 DUP8 ADD MSTORE PUSH1 0x0 PUSH1 0xA0 DUP8 ADD MSTORE DUP6 DUP4 SUB PUSH1 0xC0 DUP8 ADD MSTORE MLOAD SWAP2 DUP3 DUP2 MSTORE ADD SWAP3 SWAP2 PUSH1 0x0 JUMPDEST DUP3 DUP2 LT PUSH2 0x9DE JUMPI POP POP POP POP SUB SWAP1 RETURN JUMPDEST DUP4 MLOAD DUP6 MSTORE DUP7 SWAP6 POP SWAP4 DUP2 ADD SWAP4 SWAP3 DUP2 ADD SWAP3 PUSH1 0x1 ADD PUSH2 0x9CF JUMP JUMPDEST CALLVALUE PUSH2 0xC1 JUMPI PUSH1 0x0 CALLDATASIZE PUSH1 0x3 NOT ADD SLT PUSH2 0xC1 JUMPI PUSH1 0x5 SLOAD PUSH1 0x40 MLOAD PUSH1 0x1 PUSH1 0x1 PUSH1 0xA0 SHL SUB SWAP1 SWAP2 AND DUP2 MSTORE PUSH1 0x20 SWAP1 RETURN JUMPDEST CALLVALUE PUSH2 0xC1 JUMPI PUSH1 0x20 CALLDATASIZE PUSH1 0x3 NOT ADD SLT PUSH2 0xC1 JUMPI PUSH1 0x1 PUSH1 0x1 PUSH1 0xA0 SHL SUB PUSH2 0xA3F PUSH2 0xAEE JUMP JUMPDEST AND PUSH1 0x0 MSTORE PUSH1 0x6 PUSH1 0x20 MSTORE PUSH1 0x20 PUSH1 0x40 PUSH1 0x0 KECCAK256 SLOAD PUSH1 0x40 MLOAD SWAP1 DUP2 MSTORE RETURN JUMPDEST CALLVALUE PUSH2 0xC1 JUMPI PUSH1 0x0 CALLDATASIZE PUSH1 0x3 NOT ADD SLT PUSH2 0xC1 JUMPI PUSH2 0xA71 PUSH2 0xB75 JUMP JUMPDEST PUSH1 0x2 DUP1 SLOAD PUSH1 0x1 PUSH1 0x1 PUSH1 0xA0 SHL SUB NOT DUP2 AND SWAP1 SWAP2 SSTORE PUSH1 0x0 SWAP1 PUSH1 0x1 PUSH1 0x1 PUSH1 0xA0 SHL SUB AND PUSH32 0x8BE0079C531659141344CD1FD0A4F28419497F9722A3DAAFE3B4186F6B6457E0 DUP3 DUP1 LOG3 STOP JUMPDEST CALLVALUE PUSH2 0xC1 JUMPI PUSH1 0x0 CALLDATASIZE PUSH1 0x3 NOT ADD SLT PUSH2 0xC1 JUMPI PUSH1 0x20 SWAP1 PUSH32 0x0 DUP2 MSTORE RETURN JUMPDEST PUSH1 0x4 CALLDATALOAD SWAP1 PUSH1 0x1 PUSH1 0x1 PUSH1 0xA0 SHL SUB DUP3 AND DUP3 SUB PUSH2 0xC1 JUMPI JUMP JUMPDEST SWAP2 SWAP1 DUP3 MLOAD SWAP3 DUP4 DUP3 MSTORE PUSH1 0x0 JUMPDEST DUP5 DUP2 LT PUSH2 0xB30 JUMPI POP POP DUP3 PUSH1 0x0 PUSH1 0x20 DUP1 SWAP5 SWAP6 DUP5 ADD ADD MSTORE PUSH1 0x1F DUP1 NOT SWAP2 ADD AND ADD ADD SWAP1 JUMP JUMPDEST PUSH1 0x20 DUP2 DUP4 ADD DUP2 ADD MLOAD DUP5 DUP4 ADD DUP3 ADD MSTORE ADD PUSH2 0xB0F JUMP JUMPDEST SWAP2 DUP2 PUSH1 0x1F DUP5 ADD SLT ISZERO PUSH2 0xC1 JUMPI DUP3 CALLDATALOAD SWAP2 PUSH8 0xFFFFFFFFFFFFFFFF DUP4 GT PUSH2 0xC1 JUMPI PUSH1 0x20 DUP1 DUP6 ADD SWAP5 DUP5 PUSH1 0x5 SHL ADD ADD GT PUSH2 0xC1 JUMPI JUMP JUMPDEST PUSH1 0x2 SLOAD PUSH1 0x1 PUSH1 0x1 PUSH1 0xA0 SHL SUB AND CALLER SUB PUSH2 0xB89 JUMPI JUMP JUMPDEST PUSH1 0x64 PUSH1 0x40 MLOAD PUSH3 0x461BCD PUSH1 0xE5 SHL DUP2 MSTORE PUSH1 0x20 PUSH1 0x4 DUP3 ADD MSTORE PUSH1 0x20 PUSH1 0x24 DUP3 ADD MSTORE PUSH32 0x4F776E61626C653A2063616C6C6572206973206E6F7420746865206F776E6572 PUSH1 0x44 DUP3 ADD MSTORE REVERT JUMPDEST PUSH1 0x40 DUP2 ADD SWAP1 DUP2 LT PUSH8 0xFFFFFFFFFFFFFFFF DUP3 GT OR PUSH2 0x75E JUMPI PUSH1 0x40 MSTORE JUMP JUMPDEST SWAP1 PUSH1 0x1F DUP1 NOT SWAP2 ADD AND DUP2 ADD SWAP1 DUP2 LT PUSH8 0xFFFFFFFFFFFFFFFF DUP3 GT OR PUSH2 0x75E JUMPI PUSH1 0x40 MSTORE JUMP JUMPDEST PUSH1 0xFF DUP2 EQ PUSH2 0xC49 JUMPI PUSH1 0xFF DUP2 AND SWAP1 PUSH1 0x1F DUP3 GT PUSH2 0xC37 JUMPI PUSH1 0x40 MLOAD SWAP2 PUSH2 0xC2D DUP4 PUSH2 0xBCD JUMP JUMPDEST DUP3 MSTORE PUSH1 0x20 DUP3 ADD MSTORE SWAP1 JUMP JUMPDEST PUSH1 0x40 MLOAD PUSH4 0x2CD44AC3 PUSH1 0xE2 SHL DUP2 MSTORE PUSH1 0x4 SWAP1 REVERT JUMPDEST POP PUSH1 0x40 MLOAD PUSH1 0x0 DUP1 SLOAD SWAP1 PUSH1 0x1 DUP3 DUP2 SHR SWAP1 DUP1 DUP5 AND SWAP4 DUP5 ISZERO PUSH2 0xD27 JUMPI JUMPDEST PUSH1 0x20 SWAP5 DUP6 DUP5 LT DUP2 EQ PUSH2 0xD13 JUMPI DUP4 DUP8 MSTORE DUP7 SWAP5 SWAP4 SWAP3 SWAP2 DUP2 ISZERO PUSH2 0xCF3 JUMPI POP PUSH1 0x1 EQ PUSH2 0xC97 JUMPI JUMPDEST POP POP PUSH2 0xC94 SWAP3 POP SUB DUP3 PUSH2 0xBE9 JUMP JUMPDEST SWAP1 JUMP JUMPDEST PUSH1 0x0 DUP1 DUP1 MSTORE PUSH32 0x290DECD9548B62A8D60345A988386FC84BA6BC95484008F6362F93160EF3E563 SWAP6 SWAP4 POP SWAP2 SWAP1 JUMPDEST DUP2 DUP4 LT PUSH2 0xCDB JUMPI POP POP PUSH2 0xC94 SWAP4 POP DUP3 ADD ADD CODESIZE DUP1 PUSH2 0xC86 JUMP JUMPDEST DUP6 SLOAD DUP8 DUP5 ADD DUP6 ADD MSTORE SWAP5 DUP6 ADD SWAP5 DUP7 SWAP5 POP SWAP2 DUP4 ADD SWAP2 PUSH2 0xCC3 JUMP JUMPDEST SWAP2 POP POP PUSH2 0xC94 SWAP5 SWAP3 POP PUSH1 0xFF NOT AND DUP3 DUP5 ADD MSTORE ISZERO ISZERO PUSH1 0x5 SHL DUP3 ADD ADD CODESIZE DUP1 PUSH2 0xC86 JUMP JUMPDEST PUSH4 0x4E487B71 PUSH1 0xE0 SHL DUP6 MSTORE PUSH1 0x22 PUSH1 0x4 MSTORE PUSH1 0x24 DUP6 REVERT JUMPDEST SWAP2 PUSH1 0x7F AND SWAP2 PUSH2 0xC63 JUMP JUMPDEST PUSH1 0xFF DUP2 EQ PUSH2 0xD53 JUMPI PUSH1 0xFF DUP2 AND SWAP1 PUSH1 0x1F DUP3 GT PUSH2 0xC37 JUMPI PUSH1 0x40 MLOAD SWAP2 PUSH2 0xC2D DUP4 PUSH2 0xBCD JUMP JUMPDEST POP PUSH1 0x40 MLOAD PUSH1 0x0 PUSH1 0x1 SWAP1 DUP2 SLOAD SWAP2 DUP3 DUP2 SHR SWAP1 DUP1 DUP5 AND SWAP4 DUP5 ISZERO PUSH2 0xDFA JUMPI JUMPDEST PUSH1 0x20 SWAP5 DUP6 DUP5 LT DUP2 EQ PUSH2 0xD13 JUMPI DUP4 DUP8 MSTORE DUP7 SWAP5 SWAP4 SWAP3 SWAP2 DUP2 ISZERO PUSH2 0xCF3 JUMPI POP PUSH1 0x1 EQ PUSH2 0xD9E JUMPI POP POP PUSH2 0xC94 SWAP3 POP SUB DUP3 PUSH2 0xBE9 JUMP JUMPDEST PUSH1 0x0 DUP2 DUP2 MSTORE PUSH32 0xB10E2D527612073B26EECDFD717E6A320CF44B4AFAC2B0732D9FCBE2B7FA0CF6 SWAP6 SWAP4 POP SWAP2 SWAP1 JUMPDEST DUP2 DUP4 LT PUSH2 0xDE2 JUMPI POP POP PUSH2 0xC94 SWAP4 POP DUP3 ADD ADD CODESIZE DUP1 PUSH2 0xC86 JUMP JUMPDEST DUP6 SLOAD DUP8 DUP5 ADD DUP6 ADD MSTORE SWAP5 DUP6 ADD SWAP5 DUP7 SWAP5 POP SWAP2 DUP4 ADD SWAP2 PUSH2 0xDCA JUMP JUMPDEST SWAP2 PUSH1 0x7F AND SWAP2 PUSH2 0xD6E JUMP JUMPDEST PUSH1 0x4 CALLDATALOAD PUSH1 0x1 PUSH1 0x1 PUSH1 0xA0 SHL SUB DUP2 AND DUP2 SUB PUSH2 0xC1 JUMPI SWAP1 JUMP JUMPDEST PUSH1 0x24 CALLDATALOAD PUSH1 0x1 PUSH1 0x1 PUSH1 0xA0 SHL SUB DUP2 AND DUP2 SUB PUSH2 0xC1 JUMPI SWAP1 JUMP JUMPDEST PUSH1 0x44 CALLDATALOAD PUSH1 0x1 PUSH1 0x1 PUSH1 0xA0 SHL SUB DUP2 AND DUP2 SUB PUSH2 0xC1 JUMPI SWAP1 JUMP JUMPDEST DUP2 DUP4 MSTORE SWAP1 SWAP2 PUSH1 0x1 PUSH1 0x1 PUSH1 0xFB SHL SUB DUP4 GT PUSH2 0xC1 JUMPI PUSH1 0x20 SWAP3 PUSH1 0x5 SHL DUP1 SWAP3 DUP5 DUP4 ADD CALLDATACOPY ADD ADD SWAP1 JUMP JUMPDEST PUSH1 0x5 DUP2 LT ISZERO PUSH2 0xF6E JUMPI DUP1 PUSH2 0xE7B JUMPI POP JUMP JUMPDEST PUSH1 0x1 DUP2 SUB PUSH2 0xEC8 JUMPI PUSH1 0x40 MLOAD PUSH3 0x461BCD PUSH1 0xE5 SHL DUP2 MSTORE PUSH1 0x20 PUSH1 0x4 DUP3 ADD MSTORE PUSH1 0x18 PUSH1 0x24 DUP3 ADD MSTORE PUSH32 0x45434453413A20696E76616C6964207369676E61747572650000000000000000 PUSH1 0x44 DUP3 ADD MSTORE PUSH1 0x64 SWAP1 REVERT JUMPDEST PUSH1 0x2 DUP2 SUB PUSH2 0xF15 JUMPI PUSH1 0x40 MLOAD PUSH3 0x461BCD PUSH1 0xE5 SHL DUP2 MSTORE PUSH1 0x20 PUSH1 0x4 DUP3 ADD MSTORE PUSH1 0x1F PUSH1 0x24 DUP3 ADD MSTORE PUSH32 0x45434453413A20696E76616C6964207369676E6174757265206C656E67746800 PUSH1 0x44 DUP3 ADD MSTORE PUSH1 0x64 SWAP1 REVERT JUMPDEST PUSH1 0x3 EQ PUSH2 0xF1E JUMPI JUMP JUMPDEST PUSH1 0x40 MLOAD PUSH3 0x461BCD PUSH1 0xE5 SHL DUP2 MSTORE PUSH1 0x20 PUSH1 0x4 DUP3 ADD MSTORE PUSH1 0x22 PUSH1 0x24 DUP3 ADD MSTORE PUSH32 0x45434453413A20696E76616C6964207369676E6174757265202773272076616C PUSH1 0x44 DUP3 ADD MSTORE PUSH2 0x7565 PUSH1 0xF0 SHL PUSH1 0x64 DUP3 ADD MSTORE PUSH1 0x84 SWAP1 REVERT JUMPDEST PUSH4 0x4E487B71 PUSH1 0xE0 SHL PUSH1 0x0 MSTORE PUSH1 0x21 PUSH1 0x4 MSTORE PUSH1 0x24 PUSH1 0x0 REVERT JUMPDEST SWAP1 PUSH1 0x41 DUP2 MLOAD EQ PUSH1 0x0 EQ PUSH2 0xFB2 JUMPI PUSH2 0xFAE SWAP2 PUSH1 0x20 DUP3 ADD MLOAD SWAP1 PUSH1 0x60 PUSH1 0x40 DUP5 ADD MLOAD SWAP4 ADD MLOAD PUSH1 0x0 BYTE SWAP1 PUSH2 0xFBC JUMP JUMPDEST SWAP1 SWAP2 JUMP JUMPDEST POP POP PUSH1 0x0 SWAP1 PUSH1 0x2 SWAP1 JUMP JUMPDEST SWAP3 SWAP2 SWAP1 PUSH32 0x7FFFFFFFFFFFFFFFFFFFFFFFFFFFFFFF5D576E7357A4501DDFE92F46681B20A0 DUP4 GT PUSH2 0x103F JUMPI SWAP2 PUSH1 0x80 SWAP5 SWAP4 SWAP2 PUSH1 0xFF PUSH1 0x20 SWAP5 PUSH1 0x40 MLOAD SWAP5 DUP6 MSTORE AND DUP5 DUP5 ADD MSTORE PUSH1 0x40 DUP4 ADD MSTORE PUSH1 0x60 DUP3 ADD MSTORE PUSH1 0x0 SWAP4 DUP5 SWAP2 DUP3 DUP1 MSTORE PUSH1 0x1 GAS STATICCALL ISZERO PUSH2 0x1032 JUMPI DUP2 MLOAD PUSH1 0x1 PUSH1 0x1 PUSH1 0xA0 SHL SUB DUP2 AND ISZERO PUSH2 0x102C JUMPI SWAP2 SWAP1 JUMP JUMPDEST POP PUSH1 0x1 SWAP1 JUMP JUMPDEST POP PUSH1 0x40 MLOAD SWAP1 RETURNDATASIZE SWAP1 DUP3 RETURNDATACOPY RETURNDATASIZE SWAP1 REVERT JUMPDEST POP POP POP POP PUSH1 0x0 SWAP1 PUSH1 0x3 SWAP1 JUMP JUMPDEST ADDRESS PUSH32 0x0 PUSH1 0x1 PUSH1 0x1 PUSH1 0xA0 SHL SUB AND EQ DUP1 PUSH2 0x114D JUMPI JUMPDEST ISZERO PUSH2 0x10A6 JUMPI PUSH32 0x0 SWAP1 JUMP JUMPDEST PUSH1 0x40 MLOAD PUSH1 0x20 DUP2 ADD SWAP1 PUSH32 0x8B73C3C69BB8FE3D512ECC4CF759CC79239F7B179B0FFACAA9A75D522B39400F DUP3 MSTORE PUSH32 0x0 PUSH1 0x40 DUP3 ADD MSTORE PUSH32 0x0 PUSH1 0x60 DUP3 ADD MSTORE CHAINID PUSH1 0x80 DUP3 ADD MSTORE ADDRESS PUSH1 0xA0 DUP3 ADD MSTORE PUSH1 0xA0 DUP2 MSTORE PUSH1 0xC0 DUP2 ADD DUP2 DUP2 LT PUSH8 0xFFFFFFFFFFFFFFFF DUP3 GT OR PUSH2 0x75E JUMPI PUSH1 0x40 MSTORE MLOAD SWAP1 KECCAK256 SWAP1 JUMP JUMPDEST POP PUSH32 0x0 CHAINID EQ PUSH2 0x107D JUMP INVALID LOG2 PUSH5 0x6970667358 0x22 SLT KECCAK256 0xE6 SMOD BYTE CALLDATALOAD SWAP14 0xD7 SWAP10 0xE6 0x2F 0xB7 SWAP3 XOR PUSH0 PUSH8 0xEA9A4757FD6FC4 PUSH14 0x4136939BF04C3963D64736F6C63 NUMBER STOP ADDMOD EQ STOP CALLER "},"methodIdentifiers":{"SWAP_TYPEHASH()":"4bc30ea7","eip712Domain()":"84b0196e","executeSwapWithProof((address,address,address,uint256,uint256,uint256,uint256),bytes,uint256,uint256,bytes32[],bytes32[],uint256,uint256)":"dc443e76","nonces(address)":"7ecebe00","owner()":"8da5cb5b","proofVerifier()":"7fa417b3","renounceOwnership()":"715018a6","router()":"f887ea40","setProofVerifier(address)":"df6244db","setRouter(address)":"c0d78655","transferOwnership(address)":"f2fde38b"}}}}}