{"contracts/ProofVerifier.sol":{"ProofVerifier":{"abi":[{"inputs":[{"internalType":"address","name":"zkVerifyAddress","type":"address"},{"internalType":"bytes32","name":"vkeyHash","type":"bytes32"},{"internalType":"string","name":"provingSystem","type":"string"},{"internalType":"string","name":"proverVersion","type":"string"}],"stateMutability":"nonpayable","type":"constructor"},{"inputs":[],"name":"PROVING_SYSTEM_ID","outputs":[{"internalType":"bytes32","name":"","type":"bytes32"}],"stateMutability":"view","type":"function"},{"inputs":[],"name":"VERSION_HASH","outputs":[{"internalType":"bytes32","name":"","type":"bytes32"}],"stateMutability":"view","type":"function"},{"inputs":[{"internalType":"uint256","name":"domainId","type":"uint256"},{"internalType":"uint256","name":"aggregationId","type":"uint256"},{"internalType":"bytes32[]","name":"publicInputs","type":"bytes32[]"},{"internalType":"bytes32[]","name":"merklePath","type":"bytes32[]"},{"internalType":"uint256","name":"leafCount","type":"uint256"},{"internalType":"uint256","name":"index","type":"uint256"}],"name":"verify","outputs":[{"internalType":"bool","name":"","type":"bool"}],"stateMutability":"view","type":"function"},{"inputs":[],"name":"vkey","outputs":[{"internalType":"bytes32","name":"","type":"bytes32"}],"stateMutability":"view","type":"function"},{"inputs":[],"name":"zkVerify","outputs":[{"internalType":"contract IVerifyProofAggregation","name":"","type":"address"}],"stateMutability":"view","type":"function"}],"evm":{"bytecode":{"linkReferences":{},"object":"610100604090808252346101a75761067a803803809161001f82856101ac565b833981016080828203126101a75781516001600160a01b03811691908290036101a7576020928381015190858101519260018060401b03938481116101a7578161006a918401610208565b9360608301519081116101a7576100819201610208565b9280156101575791600093916100f09360e05260805285516100bf8682816100b281830196878151938492016101e5565b81010380845201826101ac565b51902060a05284516100e08582816100b281830196878151938492016101e5565b85519283928392519283916101e5565b8101039060025afa1561014d5760005160c0525161041d908161025d8239608051818181606f0152610203015260a05181818160f001526101e0015260c05181818161012a0152610228015260e05181818160aa01526102cc0152f35b513d6000823e3d90fd5b855162461bcd60e51b8152600481018690526024808201527f50726f6f6656657269666965723a207a65726f207a6b566572696679206164646044820152637265737360e01b6064820152608490fd5b600080fd5b601f909101601f19168101906001600160401b038211908210176101cf57604052565b634e487b7160e01b600052604160045260246000fd5b60005b8381106101f85750506000910152565b81810151838201526020016101e8565b81601f820112156101a75780516001600160401b0381116101cf576040519261023b601f8301601f1916602001856101ac565b818452602082840101116101a75761025991602080850191016101e5565b9056fe60806040818152600436101561001457600080fd5b600091823560e01c9081633402b28b1461014d575080639e4e731814610113578063a8898a20146100d9578063c5de11ff146100965763c69b0eb11461005957600080fd5b34610092578160031936011261009257602090517f00000000000000000000000000000000000000000000000000000000000000008152f35b5080fd5b5034610092578160031936011261009257517f00000000000000000000000000000000000000000000000000000000000000006001600160a01b03168152602090f35b5034610092578160031936011261009257602090517f00000000000000000000000000000000000000000000000000000000000000008152f35b5034610092578160031936011261009257602090517f00000000000000000000000000000000000000000000000000000000000000008152f35b8383346100925760c03660031901126100925767ffffffffffffffff9160443583811161009257610182903690600401610379565b939060643582811161035d5761019c903690600401610379565b6020976001600160fb1b039792939192818a01929089811161037557826101d3928c9260051b8091873781010380845201826103af565b51902095855196888801907f000000000000000000000000000000000000000000000000000000000000000082527f0000000000000000000000000000000000000000000000000000000000000000888a01527f000000000000000000000000000000000000000000000000000000000000000060608a015260808901526080885260a08801948886109086111761036157848752875190206353c7cf1b60e11b855260043560a489015260243560c489015260e488015260c06101048801526101648701829052811161035d5760e4868893859360051b809161018484013760843561012483015260a43561014483015281010301817f00000000000000000000000000000000000000000000000000000000000000006001600160a01b03165afa9384156103535785908395610312575b50505050519015158152f35b908092939495503d831161034c575b61032b81856103af565b81010312610092575190811515820361034957509083808481610306565b80fd5b503d610321565b83513d84823e3d90fd5b8380fd5b634e487b7160e01b86526041600452602486fd5b8780fd5b9181601f840112156103aa5782359167ffffffffffffffff83116103aa576020808501948460051b0101116103aa57565b600080fd5b90601f8019910116810190811067ffffffffffffffff8211176103d157604052565b634e487b7160e01b600052604160045260246000fdfea2646970667358221220daa7232bd1967d068df098cbeb6250fffa2d85b253f59999c405ade535994e6364736f6c63430008140033","opcodes":"PUSH2 0x100 PUSH1 0x40 SWAP1 DUP1 DUP3 MSTORE CALLVALUE PUSH2 0x1A7 JUMPI PUSH2 0x67A DUP1 CODESIZE SUB DUP1 SWAP2 PUSH2 0x1F DUP3 DUP6 PUSH2 0x1AC JUMP JUMPDEST DUP4 CODECOPY DUP2 ADD PUSH1 0x80 DUP3 DUP3 SUB SLT PUSH2 0x1A7 JUMPI DUP2 MLOAD PUSH1 0x1 PUSH1 0x1 PUSH1 0xA0 SHL SUB DUP2 AND SWAP2 SWAP1 DUP3 SWAP1 SUB PUSH2 0x1A7 JUMPI PUSH1 0x20 SWAP3 DUP4 DUP2 ADD MLOAD SWAP1 DUP6 DUP2 ADD MLOAD SWAP3 PUSH1 0x1 DUP1 PUSH1 0x40 SHL SUB SWAP4 DUP5 DUP2 GT PUSH2 0x1A7 JUMPI DUP2 PUSH2 0x6A SWAP2 DUP5 ADD PUSH2 0x208 JUMP JUMPDEST SWAP4 PUSH1 0x60 DUP4 ADD MLOAD SWAP1 DUP2 GT PUSH2 0x1A7 JUMPI PUSH2 0x81 SWAP3 ADD PUSH2 0x208 JUMP JUMPDEST SWAP3 DUP1 ISZERO PUSH2 0x157 JUMPI SWAP2 PUSH1 0x0 SWAP4 SWAP2 PUSH2 0xF0 SWAP4 PUSH1 0xE0 MSTORE PUSH1 0x80 MSTORE DUP6 MLOAD PUSH2 0xBF DUP7 DUP3 DUP2 PUSH2 0xB2 DUP2 DUP4 ADD SWAP7 DUP8 DUP2 MLOAD SWAP4 DUP5 SWAP3 ADD PUSH2 0x1E5 JUMP JUMPDEST DUP2 ADD SUB DUP1 DUP5 MSTORE ADD DUP3 PUSH2 0x1AC JUMP JUMPDEST MLOAD SWAP1 KECCAK256 PUSH1 0xA0 MSTORE DUP5 MLOAD PUSH2 0xE0 DUP6 DUP3 DUP2 PUSH2 0xB2 DUP2 DUP4 ADD SWAP7 DUP8 DUP2 MLOAD SWAP4 DUP5 SWAP3 ADD PUSH2 0x1E5 JUMP JUMPDEST DUP6 MLOAD SWAP3 DUP4 SWAP3 DUP4 SWAP3 MLOAD SWAP3 DUP4 SWAP2 PUSH2 0x1E5 JUMP JUMPDEST DUP2 ADD SUB SWAP1 PUSH1 0x2 GAS STATICCALL ISZERO PUSH2 0x14D JUMPI PUSH1 0x0 MLOAD PUSH1 0xC0 MSTORE MLOAD PUSH2 0x41D SWAP1 DUP2 PUSH2 0x25D DUP3 CODECOPY PUSH1 0x80 MLOAD DUP2 DUP2 DUP2 PUSH1 0x6F ADD MSTORE PUSH2 0x203 ADD MSTORE PUSH1 0xA0 MLOAD DUP2 DUP2 DUP2 PUSH1 0xF0 ADD MSTORE PUSH2 0x1E0 ADD MSTORE PUSH1 0xC0 MLOAD DUP2 DUP2 DUP2 PUSH2 0x12A ADD MSTORE PUSH2 0x228 ADD MSTORE PUSH1 0xE0 MLOAD DUP2 DUP2 DUP2 PUSH1 0xAA ADD MSTORE PUSH2 0x2CC ADD MSTORE RETURN JUMPDEST MLOAD RETURNDATASIZE PUSH1 0x0 DUP3 RETURNDATACOPY RETURNDATASIZE SWAP1 REVERT JUMPDEST DUP6 MLOAD PUSH3 0x461BCD PUSH1 0xE5 SHL DUP2 MSTORE PUSH1 0x4 DUP2 ADD DUP7 SWAP1 MSTORE PUSH1 0x24 DUP1 DUP3 ADD MSTORE PUSH32 0x50726F6F6656657269666965723A207A65726F207A6B56657269667920616464 PUSH1 0x44 DUP3 ADD MSTORE PUSH4 0x72657373 PUSH1 0xE0 SHL PUSH1 0x64 DUP3 ADD MSTORE PUSH1 0x84 SWAP1 REVERT JUMPDEST PUSH1 0x0 DUP1 REVERT JUMPDEST PUSH1 0x1F SWAP1 SWAP2 ADD PUSH1 0x1F NOT AND DUP2 ADD SWAP1 PUSH1 0x1 PUSH1 0x1 PUSH1 0x40 SHL SUB DUP3 GT SWAP1 DUP3 LT OR PUSH2 0x1CF JUMPI PUSH1 0x40 MSTORE JUMP JUMPDEST PUSH4 0x4E487B71 PUSH1 0xE0 SHL PUSH1 0x0 MSTORE PUSH1 0x41 PUSH1 0x4 MSTORE PUSH1 0x24 PUSH1 0x0 REVERT JUMPDEST PUSH1 0x0 JUMPDEST DUP4 DUP2 LT PUSH2 0x1F8 JUMPI POP POP PUSH1 0x0 SWAP2 ADD MSTORE JUMP JUMPDEST DUP2 DUP2 ADD MLOAD DUP4 DUP3 ADD MSTORE PUSH1 0x20 ADD PUSH2 0x1E8 JUMP JUMPDEST DUP2 PUSH1 0x1F DUP3 ADD SLT ISZERO PUSH2 0x1A7 JUMPI DUP1 MLOAD PUSH1 0x1 PUSH1 0x1 PUSH1 0x40 SHL SUB DUP2 GT PUSH2 0x1CF JUMPI PUSH1 0x40 MLOAD SWAP3 PUSH2 0x23B PUSH1 0x1F DUP4 ADD PUSH1 0x1F NOT AND PUSH1 0x20 ADD DUP6 PUSH2 0x1AC JUMP JUMPDEST DUP2 DUP5 MSTORE PUSH1 0x20 DUP3 DUP5 ADD ADD GT PUSH2 0x1A7 JUMPI PUSH2 0x259 SWAP2 PUSH1 0x20 DUP1 DUP6 ADD SWAP2 ADD PUSH2 0x1E5 JUMP JUMPDEST SWAP1 JUMP INVALID PUSH1 0x80 PUSH1 0x40 DUP2 DUP2 MSTORE PUSH1 0x4 CALLDATASIZE LT ISZERO PUSH2 0x14 JUMPI PUSH1 0x0 DUP1 REVERT JUMPDEST PUSH1 0x0 SWAP2 DUP3 CALLDATALOAD PUSH1 0xE0 SHR SWAP1 DUP2 PUSH4 0x3402B28B EQ PUSH2 0x14D JUMPI POP DUP1 PUSH4 0x9E4E7318 EQ PUSH2 0x113 JUMPI DUP1 PUSH4 0xA8898A20 EQ PUSH2 0xD9 JUMPI DUP1 PUSH4 0xC5DE11FF EQ PUSH2 0x96 JUMPI PUSH4 0xC69B0EB1 EQ PUSH2 0x59 JUMPI PUSH1 0x0 DUP1 REVERT JUMPDEST CALLVALUE PUSH2 0x92 JUMPI DUP2 PUSH1 0x3 NOT CALLDATASIZE ADD SLT PUSH2 0x92 JUMPI PUSH1 0x20 SWAP1 MLOAD PUSH32 0x0 DUP2 MSTORE RETURN JUMPDEST POP DUP1 REVERT JUMPDEST POP CALLVALUE PUSH2 0x92 JUMPI DUP2 PUSH1 0x3 NOT CALLDATASIZE ADD SLT PUSH2 0x92 JUMPI MLOAD PUSH32 0x0 PUSH1 0x1 PUSH1 0x1 PUSH1 0xA0 SHL SUB AND DUP2 MSTORE PUSH1 0x20 SWAP1 RETURN JUMPDEST POP CALLVALUE PUSH2 0x92 JUMPI DUP2 PUSH1 0x3 NOT CALLDATASIZE ADD SLT PUSH2 0x92 JUMPI PUSH1 0x20 SWAP1 MLOAD PUSH32 0x0 DUP2 MSTORE RETURN JUMPDEST POP CALLVALUE PUSH2 0x92 JUMPI DUP2 PUSH1 0x3 NOT CALLDATASIZE ADD SLT PUSH2 0x92 JUMPI PUSH1 0x20 SWAP1 MLOAD PUSH32 0x0 DUP2 MSTORE RETURN JUMPDEST DUP4 DUP4 CALLVALUE PUSH2 0x92 JUMPI PUSH1 0xC0 CALLDATASIZE PUSH1 0x3 NOT ADD SLT PUSH2 0x92 JUMPI PUSH8 0xFFFFFFFFFFFFFFFF SWAP2 PUSH1 0x44 CALLDATALOAD DUP4 DUP2 GT PUSH2 0x92 JUMPI PUSH2 0x182 SWAP1 CALLDATASIZE SWAP1 PUSH1 0x4 ADD PUSH2 0x379 JUMP JUMPDEST SWAP4 SWAP1 PUSH1 0x64 CALLDATALOAD DUP3 DUP2 GT PUSH2 0x35D JUMPI PUSH2 0x19C SWAP1 CALLDATASIZE SWAP1 PUSH1 0x4 ADD PUSH2 0x379 JUMP JUMPDEST PUSH1 0x20 SWAP8 PUSH1 0x1 PUSH1 0x1 PUSH1 0xFB SHL SUB SWAP8 SWAP3 SWAP4 SWAP2 SWAP3 DUP2 DUP11 ADD SWAP3 SWAP1 DUP10 DUP2 GT PUSH2 0x375 JUMPI DUP3 PUSH2 0x1D3 SWAP3 DUP13 SWAP3 PUSH1 0x5 SHL DUP1 SWAP2 DUP8 CALLDATACOPY DUP2 ADD SUB DUP1 DUP5 MSTORE ADD DUP3 PUSH2 0x3AF JUMP JUMPDEST MLOAD SWAP1 KECCAK256 SWAP6 DUP6 MLOAD SWAP7 DUP9 DUP9 ADD SWAP1 PUSH32 0x0 DUP3 MSTORE PUSH32 0x0 DUP9 DUP11 ADD MSTORE PUSH32 0x0 PUSH1 0x60 DUP11 ADD MSTORE PUSH1 0x80 DUP10 ADD MSTORE PUSH1 0x80 DUP9 MSTORE PUSH1 0xA0 DUP9 ADD SWAP5 DUP9 DUP7 LT SWAP1 DUP7 GT OR PUSH2 0x361 JUMPI DUP5 DUP8 MSTORE DUP8 MLOAD SWAP1 KECCAK256 PUSH4 0x53C7CF1B PUSH1 0xE1 SHL DUP6 MSTORE PUSH1 0x4 CALLDATALOAD PUSH1 0xA4 DUP10 ADD MSTORE PUSH1 0x24 CALLDATALOAD PUSH1 0xC4 DUP10 ADD MSTORE PUSH1 0xE4 DUP9 ADD MSTORE PUSH1 0xC0 PUSH2 0x104 DUP9 ADD MSTORE PUSH2 0x164 DUP8 ADD DUP3 SWAP1 MSTORE DUP2 GT PUSH2 0x35D JUMPI PUSH1 0xE4 DUP7 DUP9 SWAP4 DUP6 SWAP4 PUSH1 0x5 SHL DUP1 SWAP2 PUSH2 0x184 DUP5 ADD CALLDATACOPY PUSH1 0x84 CALLDATALOAD PUSH2 0x124 DUP4 ADD MSTORE PUSH1 0xA4 CALLDATALOAD PUSH2 0x144 DUP4 ADD MSTORE DUP2 ADD SUB ADD DUP2 PUSH32 0x0 PUSH1 0x1 PUSH1 0x1 PUSH1 0xA0 SHL SUB AND GAS STATICCALL SWAP4 DUP5 ISZERO PUSH2 0x353 JUMPI DUP6 SWAP1 DUP4 SWAP6 PUSH2 0x312 JUMPI JUMPDEST POP POP POP POP MLOAD SWAP1 ISZERO ISZERO DUP2 MSTORE RETURN JUMPDEST SWAP1 DUP1 SWAP3 SWAP4 SWAP5 SWAP6 POP RETURNDATASIZE DUP4 GT PUSH2 0x34C JUMPI JUMPDEST PUSH2 0x32B DUP2 DUP6 PUSH2 0x3AF JUMP JUMPDEST DUP2 ADD SUB SLT PUSH2 0x92 JUMPI MLOAD SWAP1 DUP2 ISZERO ISZERO DUP3 SUB PUSH2 0x349 JUMPI POP SWAP1 DUP4 DUP1 DUP5 DUP2 PUSH2 0x306 JUMP JUMPDEST DUP1 REVERT JUMPDEST POP RETURNDATASIZE PUSH2 0x321 JUMP JUMPDEST DUP4 MLOAD RETURNDATASIZE DUP5 DUP3 RETURNDATACOPY RETURNDATASIZE SWAP1 REVERT JUMPDEST DUP4 DUP1 REVERT JUMPDEST PUSH4 0x4E487B71 PUSH1 0xE0 SHL DUP7 MSTORE PUSH1 0x41 PUSH1 0x4 MSTORE PUSH1 0x24 DUP7 REVERT JUMPDEST DUP8 DUP1 REVERT JUMPDEST SWAP2 DUP2 PUSH1 0x1F DUP5 ADD SLT ISZERO PUSH2 0x3AA JUMPI DUP3 CALLDATALOAD SWAP2 PUSH8 0xFFFFFFFFFFFFFFFF DUP4 GT PUSH2 0x3AA JUMPI PUSH1 0x20 DUP1 DUP6 ADD SWAP5 DUP5 PUSH1 0x5 SHL ADD ADD GT PUSH2 0x3AA JUMPI JUMP JUMPDEST PUSH1 0x0 DUP1 REVERT JUMPDEST SWAP1 PUSH1 0x1F DUP1 NOT SWAP2 ADD AND DUP2 ADD SWAP1 DUP2 LT PUSH8 0xFFFFFFFFFFFFFFFF DUP3 GT OR PUSH2 0x3D1 JUMPI PUSH1 0x40 MSTORE JUMP JUMPDEST PUSH4 0x4E487B71 PUSH1 0xE0 SHL PUSH1 0x0 MSTORE PUSH1 0x41 PUSH1 0x4 MSTORE PUSH1 0x24 PUSH1 0x0 REVERT INVALID LOG2 PUSH5 0x6970667358 0x22 SLT KECCAK256 0xDA 0xA7 0x23 0x2B 0xD1 SWAP7 PUSH30 0x68DF098CBEB6250FFFA2D85B253F59999C405ADE535994E6364736F6C63 NUMBER STOP ADDMOD EQ STOP CALLER "},"methodIdentifiers":{"PROVING_SYSTEM_ID()":"a8898a20","VERSION_HASH()":"9e4e7318","verify(uint256,uint256,bytes32[],bytes32[],uint256,uint256)":"3402b28b","vkey()":"c69b0eb1","zkVerify()":"c5de11ff"}}}}}