{"contracts/mocks/MockProofVerifier.sol":{"MockProofVerifier":{"abi":[{"inputs":[{"internalType":"uint256","name":"","type":"uint256"},{"internalType":"uint256","name":"","type":"uint256"},{"internalType":"bytes32[]","name":"","type":"bytes32[]"},{"internalType":"bytes32[]","name":"","type":"bytes32[]"},{"internalType":"uint256","name":"","type":"uint256"},{"internalType":"uint256","name":"","type":"uint256"}],"name":"verify","outputs":[{"internalType":"bool","name":"","type":"bool"}],"stateMutability":"pure","type":"function"}],"evm":{"bytecode":{"linkReferences":{},"object":"608080604052346100155760e8908161001b8239f35b600080fdfe6080806040526004361015601257600080fd5b600090813560e01c633402b28b14602857600080fd5b34607b5760c0366003190112607b5767ffffffffffffffff91604435838111607b576056903690600401607f565b50506064359283116078575060706020923690600401607f565b505060018152f35b80fd5b5080fd5b9181601f8401121560ad5782359167ffffffffffffffff831160ad576020808501948460051b01011160ad57565b600080fdfea26469706673582212209c1474f6325913e271a00d58f545434e53f6496249ee7eef7e98c7c34046eb6e64736f6c63430008140033","opcodes":"PUSH1 0x80 DUP1 PUSH1 0x40 MSTORE CALLVALUE PUSH2 0x15 JUMPI PUSH1 0xE8 SWAP1 DUP2 PUSH2 0x1B DUP3 CODECOPY RETURN JUMPDEST PUSH1 0x0 DUP1 REVERT INVALID PUSH1 0x80 DUP1 PUSH1 0x40 MSTORE PUSH1 0x4 CALLDATASIZE LT ISZERO PUSH1 0x12 JUMPI PUSH1 0x0 DUP1 REVERT JUMPDEST PUSH1 0x0 SWAP1 DUP2 CALLDATALOAD PUSH1 0xE0 SHR PUSH4 0x3402B28B EQ PUSH1 0x28 JUMPI PUSH1 0x0 DUP1 REVERT JUMPDEST CALLVALUE PUSH1 0x7B JUMPI PUSH1 0xC0 CALLDATASIZE PUSH1 0x3 NOT ADD SLT PUSH1 0x7B JUMPI PUSH8 0xFFFFFFFFFFFFFFFF SWAP2 PUSH1 0x44 CALLDATALOAD DUP4 DUP2 GT PUSH1 0x7B JUMPI PUSH1 0x56 SWAP1 CALLDATASIZE SWAP1 PUSH1 0x4 ADD PUSH1 0x7F JUMP JUMPDEST POP POP PUSH1 0x64 CALLDATALOAD SWAP3 DUP4 GT PUSH1 0x78 JUMPI POP PUSH1 0x70 PUSH1 0x20 SWAP3 CALLDATASIZE SWAP1 PUSH1 0x4 ADD PUSH1 0x7F JUMP JUMPDEST POP POP PUSH1 0x1 DUP2 MSTORE RETURN JUMPDEST DUP1 REVERT JUMPDEST POP DUP1 REVERT JUMPDEST SWAP2 DUP2 PUSH1 0x1F DUP5 ADD SLT ISZERO PUSH1 0xAD JUMPI DUP3 CALLDATALOAD SWAP2 PUSH8 0xFFFFFFFFFFFFFFFF DUP4 GT PUSH1 0xAD JUMPI PUSH1 0x20 DUP1 DUP6 ADD SWAP5 DUP5 PUSH1 0x5 SHL ADD ADD GT PUSH1 0xAD JUMPI JUMP JUMPDEST PUSH1 0x0 DUP1 REVERT INVALID LOG2 PUSH5 0x6970667358 0x22 SLT KECCAK256 SWAP13 EQ PUSH21 0xF6325913E271A00D58F545434E53F6496249EE7EEF PUSH31 0x98C7C34046EB6E64736F6C6343000814003300000000000000000000000000 "},"methodIdentifiers":{"verify(uint256,uint256,bytes32[],bytes32[],uint256,uint256)":"3402b28b"}}}}}